{
  "contractName": "counter",
  "abi": [
    {
      "inputs": [],
      "name": "initialize",
      "outputs": [],
      "stateMutability": "nonpayable",
      "type": "function"
    },
    {
      "inputs": [],
      "name": "get",
      "outputs": [
        {
          "internalType": "uint256",
          "name": "",
          "type": "uint256"
        }
      ],
      "stateMutability": "view",
      "type": "function",
      "constant": true
    },
    {
      "inputs": [],
      "name": "increment",
      "outputs": [],
      "stateMutability": "nonpayable",
      "type": "function"
    },
    {
      "inputs": [],
      "name": "decrement",
      "outputs": [],
      "stateMutability": "nonpayable",
      "type": "function"
    }
  ],
  "bytecode": "0x608060405234801561001057600080fd5b506101d6806100206000396000f3fe608060405234801561001057600080fd5b506004361061004c5760003560e01c80632baeceb7146100515780636d4ce63c1461005b5780638129fc1c14610079578063d09de08a14610083575b600080fd5b61005961008d565b005b6100636100a8565b60405161007091906100ee565b60405180910390f35b6100816100b1565b005b61008b6100ba565b005b600160008082825461009f9190610138565b92505081905550565b60008054905090565b60008081905550565b60016000808282546100cc919061016c565b92505081905550565b6000819050919050565b6100e8816100d5565b82525050565b600060208201905061010360008301846100df565b92915050565b7f4e487b7100000000000000000000000000000000000000000000000000000000600052601160045260246000fd5b6000610143826100d5565b915061014e836100d5565b925082820390508181111561016657610165610109565b5b92915050565b6000610177826100d5565b9150610182836100d5565b925082820190508082111561019a57610199610109565b5b9291505056fea264697066735822122075519a8651f9e26baf40b5fef98af71ad870085ca0e3eb3e5160bf10e62e188264736f6c63430008110033",
  "immutableReferences": {},
  "source": "//SPDX-License-Identifier: UNLICENSED\npragma solidity  >=0.5.0 <0.9.0;\n\n// imagine a big integer counter that the whole world could share contract\n\ncontract counter{\n    uint value; \n\nfunction initialize () public { \n value = 0; } \n\nfunction get() view public returns (uint) { \nreturn value; } \n\nfunction increment () public { \nvalue+=1; // return (optional) \n} \n\nfunction decrement () public { \n value-=1; \n} \n} \n",
  "sourcePath": "/Users/lakshyarawal/Desktop/526/Term Project/RxChain/contracts/counter.sol",
  "compiler": {
    "name": "solc",
    "version": "0.8.17+commit.8df45f5f.Emscripten.clang"
  },
  "schemaVersion": "3.4.10",
  "updatedAt": "2022-11-13T05:34:52.281Z",
  "networkType": "ethereum",
  "devdoc": {
    "kind": "dev",
    "methods": {},
    "version": 1
  },
  "userdoc": {
    "kind": "user",
    "methods": {},
    "version": 1
  }
}