{
  "contractName": "counter",
  "abi": [
    {
      "inputs": [],
      "name": "initialize",
      "outputs": [],
      "stateMutability": "nonpayable",
      "type": "function"
    },
    {
      "inputs": [],
      "name": "get",
      "outputs": [
        {
          "internalType": "uint256",
          "name": "",
          "type": "uint256"
        }
      ],
      "stateMutability": "view",
      "type": "function",
      "constant": true
    },
    {
      "inputs": [],
      "name": "increment",
      "outputs": [],
      "stateMutability": "nonpayable",
      "type": "function"
    },
    {
      "inputs": [],
      "name": "decrement",
      "outputs": [],
      "stateMutability": "nonpayable",
      "type": "function"
    }
  ],
  "bytecode": "0x608060405234801561001057600080fd5b506101d6806100206000396000f3fe608060405234801561001057600080fd5b506004361061004c5760003560e01c80632baeceb7146100515780636d4ce63c1461005b5780638129fc1c14610079578063d09de08a14610083575b600080fd5b61005961008d565b005b6100636100a8565b60405161007091906100ee565b60405180910390f35b6100816100b1565b005b61008b6100ba565b005b600160008082825461009f9190610138565b92505081905550565b60008054905090565b60008081905550565b60016000808282546100cc919061016c565b92505081905550565b6000819050919050565b6100e8816100d5565b82525050565b600060208201905061010360008301846100df565b92915050565b7f4e487b7100000000000000000000000000000000000000000000000000000000600052601160045260246000fd5b6000610143826100d5565b915061014e836100d5565b925082820390508181111561016657610165610109565b5b92915050565b6000610177826100d5565b9150610182836100d5565b925082820190508082111561019a57610199610109565b5b9291505056fea26469706673582212206c23a5c75984a12798bbd8372f937c97a5372e28867130d52985c4eb79d05ab464736f6c63430008110033",
  "immutableReferences": {},
  "source": "//SPDX-License-Identifier: UNLICENSED\r\npragma solidity  >=0.5.0 <0.9.0;\r\n\r\n// imagine a big integer counter that the whole world could share contract\r\n\r\ncontract counter{\r\n    uint value; \r\n\r\nfunction initialize () public { \r\n value = 0; } \r\n\r\nfunction get() view public returns (uint) { \r\nreturn value; } \r\n\r\nfunction increment () public { \r\nvalue+=1; // return (optional) \r\n} \r\n\r\nfunction decrement () public { \r\n value-=1; \r\n} \r\n} \r\n",
  "sourcePath": "D:\\Final_V2\\contracts\\counter.sol",
  "compiler": {
    "name": "solc",
    "version": "0.8.17+commit.8df45f5f.Emscripten.clang"
  },
  "schemaVersion": "3.4.10",
  "updatedAt": "2022-11-08T19:16:42.756Z",
  "networkType": "ethereum",
  "devdoc": {
    "kind": "dev",
    "methods": {},
    "version": 1
  },
  "userdoc": {
    "kind": "user",
    "methods": {},
    "version": 1
  }
}