{
  "contractName": "RxChain",
  "abi": [
    {
      "inputs": [],
      "name": "decrement",
      "outputs": [],
      "stateMutability": "nonpayable",
      "type": "function"
    },
    {
      "inputs": [
        {
          "internalType": "address",
          "name": "",
          "type": "address"
        }
      ],
      "name": "doctor_membership",
      "outputs": [
        {
          "internalType": "uint256",
          "name": "age",
          "type": "uint256"
        },
        {
          "internalType": "string",
          "name": "name",
          "type": "string"
        },
        {
          "internalType": "string",
          "name": "email",
          "type": "string"
        },
        {
          "internalType": "string",
          "name": "clinic_name",
          "type": "string"
        },
        {
          "internalType": "address",
          "name": "Doc",
          "type": "address"
        }
      ],
      "stateMutability": "view",
      "type": "function",
      "constant": true
    },
    {
      "inputs": [
        {
          "internalType": "uint256",
          "name": "",
          "type": "uint256"
        }
      ],
      "name": "doctors_list",
      "outputs": [
        {
          "internalType": "uint256",
          "name": "age",
          "type": "uint256"
        },
        {
          "internalType": "string",
          "name": "name",
          "type": "string"
        },
        {
          "internalType": "string",
          "name": "email",
          "type": "string"
        },
        {
          "internalType": "string",
          "name": "clinic_name",
          "type": "string"
        },
        {
          "internalType": "address",
          "name": "Doc",
          "type": "address"
        }
      ],
      "stateMutability": "view",
      "type": "function",
      "constant": true
    },
    {
      "inputs": [
        {
          "internalType": "address",
          "name": "",
          "type": "address"
        }
      ],
      "name": "genuine_doctors",
      "outputs": [
        {
          "internalType": "bool",
          "name": "",
          "type": "bool"
        }
      ],
      "stateMutability": "view",
      "type": "function",
      "constant": true
    },
    {
      "inputs": [],
      "name": "get",
      "outputs": [
        {
          "internalType": "uint256",
          "name": "",
          "type": "uint256"
        }
      ],
      "stateMutability": "view",
      "type": "function",
      "constant": true
    },
    {
      "inputs": [],
      "name": "increment",
      "outputs": [],
      "stateMutability": "nonpayable",
      "type": "function"
    },
    {
      "inputs": [],
      "name": "initialize",
      "outputs": [],
      "stateMutability": "nonpayable",
      "type": "function"
    },
    {
      "inputs": [
        {
          "internalType": "address",
          "name": "",
          "type": "address"
        }
      ],
      "name": "patient_membership",
      "outputs": [
        {
          "internalType": "uint256",
          "name": "age",
          "type": "uint256"
        },
        {
          "internalType": "string",
          "name": "name",
          "type": "string"
        },
        {
          "internalType": "string",
          "name": "email",
          "type": "string"
        },
        {
          "internalType": "address payable",
          "name": "Pat",
          "type": "address"
        }
      ],
      "stateMutability": "view",
      "type": "function",
      "constant": true
    },
    {
      "inputs": [
        {
          "internalType": "uint256",
          "name": "",
          "type": "uint256"
        }
      ],
      "name": "patients_list",
      "outputs": [
        {
          "internalType": "uint256",
          "name": "age",
          "type": "uint256"
        },
        {
          "internalType": "string",
          "name": "name",
          "type": "string"
        },
        {
          "internalType": "string",
          "name": "email",
          "type": "string"
        },
        {
          "internalType": "address payable",
          "name": "Pat",
          "type": "address"
        }
      ],
      "stateMutability": "view",
      "type": "function",
      "constant": true
    },
    {
      "inputs": [
        {
          "internalType": "address",
          "name": "",
          "type": "address"
        }
      ],
      "name": "pharmacist_membership",
      "outputs": [
        {
          "internalType": "uint256",
          "name": "age",
          "type": "uint256"
        },
        {
          "internalType": "string",
          "name": "name",
          "type": "string"
        },
        {
          "internalType": "string",
          "name": "email",
          "type": "string"
        },
        {
          "internalType": "string",
          "name": "store_address",
          "type": "string"
        },
        {
          "internalType": "address",
          "name": "Pharm",
          "type": "address"
        }
      ],
      "stateMutability": "view",
      "type": "function",
      "constant": true
    },
    {
      "inputs": [
        {
          "internalType": "uint256",
          "name": "",
          "type": "uint256"
        }
      ],
      "name": "pharmacists_list",
      "outputs": [
        {
          "internalType": "uint256",
          "name": "age",
          "type": "uint256"
        },
        {
          "internalType": "string",
          "name": "name",
          "type": "string"
        },
        {
          "internalType": "string",
          "name": "email",
          "type": "string"
        },
        {
          "internalType": "string",
          "name": "store_address",
          "type": "string"
        },
        {
          "internalType": "address",
          "name": "Pharm",
          "type": "address"
        }
      ],
      "stateMutability": "view",
      "type": "function",
      "constant": true
    },
    {
      "inputs": [
        {
          "internalType": "uint256",
          "name": "",
          "type": "uint256"
        }
      ],
      "name": "prescription",
      "outputs": [
        {
          "internalType": "string",
          "name": "PresDate",
          "type": "string"
        },
        {
          "internalType": "address",
          "name": "Pat",
          "type": "address"
        },
        {
          "internalType": "address",
          "name": "Doc",
          "type": "address"
        }
      ],
      "stateMutability": "view",
      "type": "function",
      "constant": true
    },
    {
      "inputs": [
        {
          "internalType": "uint256",
          "name": "",
          "type": "uint256"
        }
      ],
      "name": "prescription_list",
      "outputs": [
        {
          "internalType": "string",
          "name": "PresDate",
          "type": "string"
        },
        {
          "internalType": "address",
          "name": "Pat",
          "type": "address"
        },
        {
          "internalType": "address",
          "name": "Doc",
          "type": "address"
        }
      ],
      "stateMutability": "view",
      "type": "function",
      "constant": true
    },
    {
      "inputs": [
        {
          "internalType": "address",
          "name": "doc_new",
          "type": "address"
        },
        {
          "internalType": "string",
          "name": "_name",
          "type": "string"
        },
        {
          "internalType": "uint256",
          "name": "age",
          "type": "uint256"
        },
        {
          "internalType": "string",
          "name": "_email",
          "type": "string"
        },
        {
          "internalType": "string",
          "name": "_clinic_name",
          "type": "string"
        }
      ],
      "name": "Doctor_Register",
      "outputs": [
        {
          "internalType": "bool",
          "name": "",
          "type": "bool"
        }
      ],
      "stateMutability": "nonpayable",
      "type": "function"
    },
    {
      "inputs": [
        {
          "internalType": "address",
          "name": "doc_new",
          "type": "address"
        }
      ],
      "name": "Doctor_Unregister",
      "outputs": [
        {
          "internalType": "bool",
          "name": "",
          "type": "bool"
        }
      ],
      "stateMutability": "nonpayable",
      "type": "function"
    },
    {
      "inputs": [
        {
          "internalType": "address payable",
          "name": "pat_new",
          "type": "address"
        },
        {
          "internalType": "string",
          "name": "_name",
          "type": "string"
        },
        {
          "internalType": "uint256",
          "name": "age",
          "type": "uint256"
        },
        {
          "internalType": "string",
          "name": "_email",
          "type": "string"
        }
      ],
      "name": "Patient_Register",
      "outputs": [
        {
          "internalType": "bool",
          "name": "",
          "type": "bool"
        }
      ],
      "stateMutability": "nonpayable",
      "type": "function"
    },
    {
      "inputs": [
        {
          "internalType": "address payable",
          "name": "pat_new",
          "type": "address"
        }
      ],
      "name": "Patient_Unegister",
      "outputs": [
        {
          "internalType": "bool",
          "name": "",
          "type": "bool"
        }
      ],
      "stateMutability": "nonpayable",
      "type": "function"
    },
    {
      "inputs": [
        {
          "internalType": "address",
          "name": "pharm_new",
          "type": "address"
        },
        {
          "internalType": "string",
          "name": "_name",
          "type": "string"
        },
        {
          "internalType": "uint256",
          "name": "age",
          "type": "uint256"
        },
        {
          "internalType": "string",
          "name": "_email",
          "type": "string"
        },
        {
          "internalType": "string",
          "name": "_store_address",
          "type": "string"
        }
      ],
      "name": "Pharmacy_Register",
      "outputs": [
        {
          "internalType": "bool",
          "name": "",
          "type": "bool"
        }
      ],
      "stateMutability": "nonpayable",
      "type": "function"
    },
    {
      "inputs": [
        {
          "internalType": "address",
          "name": "pharm_new",
          "type": "address"
        }
      ],
      "name": "Pharmacy_Unregister",
      "outputs": [
        {
          "internalType": "bool",
          "name": "",
          "type": "bool"
        }
      ],
      "stateMutability": "nonpayable",
      "type": "function"
    },
    {
      "inputs": [
        {
          "internalType": "address payable",
          "name": "_Pat",
          "type": "address"
        },
        {
          "internalType": "address",
          "name": "_Doc",
          "type": "address"
        },
        {
          "internalType": "string",
          "name": "_PresDate",
          "type": "string"
        },
        {
          "internalType": "string[]",
          "name": "medicines",
          "type": "string[]"
        }
      ],
      "name": "Prescription_Register",
      "outputs": [
        {
          "internalType": "bool",
          "name": "",
          "type": "bool"
        }
      ],
      "stateMutability": "nonpayable",
      "type": "function"
    },
    {
      "inputs": [
        {
          "internalType": "address",
          "name": "_pat",
          "type": "address"
        },
        {
          "internalType": "address",
          "name": "_doc",
          "type": "address"
        },
        {
          "internalType": "uint256",
          "name": "pres_id",
          "type": "uint256"
        }
      ],
      "name": "validate_prescription",
      "outputs": [
        {
          "internalType": "bool",
          "name": "",
          "type": "bool"
        }
      ],
      "stateMutability": "nonpayable",
      "type": "function"
    },
    {
      "inputs": [
        {
          "internalType": "address payable",
          "name": "receiver",
          "type": "address"
        }
      ],
      "name": "sendBal",
      "outputs": [
        {
          "internalType": "bool",
          "name": "",
          "type": "bool"
        }
      ],
      "stateMutability": "payable",
      "type": "function",
      "payable": true
    }
  ],
  "bytecode": "0x60806040526000600460146101000a81548160ff02191690831515021790555034801561002b57600080fd5b50613ab28061003b6000396000f3fe6080604052600436106101355760003560e01c806393854523116100ab578063a927a9021161006f578063a927a902146104b0578063b4505b2c146104ef578063b7b1c40e1461052f578063d09de08a1461056c578063e87d0c2214610583578063fe9d698c146105c057610135565b8063938545231461037b578063968f95b9146103b85780639b0c5f25146103f9578063a5aadc9e14610436578063a7c6c2391461047357610135565b80632baeceb7116100fd5780632baeceb7146102605780632f0ec0ed1461027757806340e9970b146102b757806342383fe4146102f85780636d4ce63c146103395780638129fc1c1461036457610135565b806304cbda4e1461013a5780630569d6861461016a5780630c6d9a68146101a757806327bd52ac146101e4578063287eda0514610221575b600080fd5b610154600480360381019061014f9190612c54565b610601565b6040516101619190612c9c565b60405180910390f35b34801561017657600080fd5b50610191600480360381019061018c9190612d2b565b6107d9565b60405161019e9190612c9c565b60405180910390f35b3480156101b357600080fd5b506101ce60048036038101906101c99190612d7e565b610a3c565b6040516101db9190612c9c565b60405180910390f35b3480156101f057600080fd5b5061020b60048036038101906102069190612ef1565b610a5c565b6040516102189190612c9c565b60405180910390f35b34801561022d57600080fd5b5061024860048036038101906102439190612fc0565b610cd4565b6040516102579392919061307b565b60405180910390f35b34801561026c57600080fd5b50610275610dc6565b005b34801561028357600080fd5b5061029e60048036038101906102999190612d7e565b610de1565b6040516102ae94939291906130d7565b60405180910390f35b3480156102c357600080fd5b506102de60048036038101906102d99190612d7e565b610f41565b6040516102ef95949392919061312a565b60405180910390f35b34801561030457600080fd5b5061031f600480360381019061031a9190612fc0565b61112f565b60405161033095949392919061312a565b60405180910390f35b34801561034557600080fd5b5061034e61132d565b60405161035b9190613192565b60405180910390f35b34801561037057600080fd5b50610379611336565b005b34801561038757600080fd5b506103a2600480360381019061039d91906131ad565b61133f565b6040516103af9190612c9c565b60405180910390f35b3480156103c457600080fd5b506103df60048036038101906103da9190612fc0565b611524565b6040516103f095949392919061312a565b60405180910390f35b34801561040557600080fd5b50610420600480360381019061041b9190613332565b611722565b60405161042d9190612c9c565b60405180910390f35b34801561044257600080fd5b5061045d60048036038101906104589190612d7e565b611afb565b60405161046a9190612c9c565b60405180910390f35b34801561047f57600080fd5b5061049a60048036038101906104959190612c54565b611e9a565b6040516104a79190612c9c565b60405180910390f35b3480156104bc57600080fd5b506104d760048036038101906104d29190612fc0565b6120d0565b6040516104e69392919061307b565b60405180910390f35b3480156104fb57600080fd5b5061051660048036038101906105119190612fc0565b6121d2565b60405161052694939291906130d7565b60405180910390f35b34801561053b57600080fd5b5061055660048036038101906105519190612d7e565b612342565b6040516105639190612c9c565b60405180910390f35b34801561057857600080fd5b506105816125f4565b005b34801561058f57600080fd5b506105aa60048036038101906105a59190612ef1565b61260f565b6040516105b79190612c9c565b60405180910390f35b3480156105cc57600080fd5b506105e760048036038101906105e29190612d7e565b61291a565b6040516105f895949392919061312a565b60405180910390f35b6000600360009054906101000a900473ffffffffffffffffffffffffffffffffffffffff1673ffffffffffffffffffffffffffffffffffffffff163373ffffffffffffffffffffffffffffffffffffffff161461065d57600080fd5b60011515600460149054906101000a900460ff161515036107cf57600034905060005b6001600c805490506106929190613400565b8110156107cc578373ffffffffffffffffffffffffffffffffffffffff16600c82815481106106c4576106c3613434565b5b906000526020600020906005020160040160009054906101000a900473ffffffffffffffffffffffffffffffffffffffff1673ffffffffffffffffffffffffffffffffffffffff16036107b9578373ffffffffffffffffffffffffffffffffffffffff166108fc839081150290604051600060405180830381858888f19350505050158015610757573d6000803e3d6000fd5b5081600e60003373ffffffffffffffffffffffffffffffffffffffff1673ffffffffffffffffffffffffffffffffffffffff16815260200190815260200160002060008282546107a79190613463565b925050819055506001925050506107d4565b80806107c490613497565b915050610680565b50505b600090505b919050565b6000600260009054906101000a900473ffffffffffffffffffffffffffffffffffffffff1673ffffffffffffffffffffffffffffffffffffffff163373ffffffffffffffffffffffffffffffffffffffff161461083557600080fd5b6005600083815260200190815260200160002060010160009054906101000a900473ffffffffffffffffffffffffffffffffffffffff1660405160200161087c9190613527565b60405160208183030381529060405280519060200120600660008673ffffffffffffffffffffffffffffffffffffffff1673ffffffffffffffffffffffffffffffffffffffff16815260200190815260200160002060030160009054906101000a900473ffffffffffffffffffffffffffffffffffffffff16604051602001610905919061356b565b6040516020818303038152906040528051906020012003610a30576005600083815260200190815260200160002060020160009054906101000a900473ffffffffffffffffffffffffffffffffffffffff166040516020016109679190613527565b60405160208183030381529060405280519060200120600760008573ffffffffffffffffffffffffffffffffffffffff1673ffffffffffffffffffffffffffffffffffffffff16815260200190815260200160002060040160009054906101000a900473ffffffffffffffffffffffffffffffffffffffff166040516020016109f09190613527565b6040516020818303038152906040528051906020012003610a2f576001600460146101000a81548160ff02191690831515021790555060019050610a35565b5b600090505b9392505050565b60096020528060005260406000206000915054906101000a900460ff1681565b6000600260009054906101000a900473ffffffffffffffffffffffffffffffffffffffff1673ffffffffffffffffffffffffffffffffffffffff163373ffffffffffffffffffffffffffffffffffffffff1614610ab857600080fd5b600c6040518060a001604052808681526020018781526020018581526020018481526020018873ffffffffffffffffffffffffffffffffffffffff168152509080600181540180825580915050600190039060005260206000209060050201600090919091909150600082015181600001556020820151816001019081610b3f9190613792565b506040820151816002019081610b559190613792565b506060820151816003019081610b6b9190613792565b5060808201518160040160006101000a81548173ffffffffffffffffffffffffffffffffffffffff021916908373ffffffffffffffffffffffffffffffffffffffff16021790555050506040518060a001604052808581526020018681526020018481526020018381526020018773ffffffffffffffffffffffffffffffffffffffff16815250600860008873ffffffffffffffffffffffffffffffffffffffff1673ffffffffffffffffffffffffffffffffffffffff168152602001908152602001600020600082015181600001556020820151816001019081610c509190613792565b506040820151816002019081610c669190613792565b506060820151816003019081610c7c9190613792565b5060808201518160040160006101000a81548173ffffffffffffffffffffffffffffffffffffffff021916908373ffffffffffffffffffffffffffffffffffffffff1602179055509050506001905095945050505050565b6005602052806000526040600020600091509050806000018054610cf7906135b5565b80601f0160208091040260200160405190810160405280929190818152602001828054610d23906135b5565b8015610d705780601f10610d4557610100808354040283529160200191610d70565b820191906000526020600020905b815481529060010190602001808311610d5357829003601f168201915b5050505050908060010160009054906101000a900473ffffffffffffffffffffffffffffffffffffffff16908060020160009054906101000a900473ffffffffffffffffffffffffffffffffffffffff16905083565b6001600080828254610dd89190613400565b92505081905550565b6006602052806000526040600020600091509050806000015490806001018054610e0a906135b5565b80601f0160208091040260200160405190810160405280929190818152602001828054610e36906135b5565b8015610e835780601f10610e5857610100808354040283529160200191610e83565b820191906000526020600020905b815481529060010190602001808311610e6657829003601f168201915b505050505090806002018054610e98906135b5565b80601f0160208091040260200160405190810160405280929190818152602001828054610ec4906135b5565b8015610f115780601f10610ee657610100808354040283529160200191610f11565b820191906000526020600020905b815481529060010190602001808311610ef457829003601f168201915b5050505050908060030160009054906101000a900473ffffffffffffffffffffffffffffffffffffffff16905084565b6008602052806000526040600020600091509050806000015490806001018054610f6a906135b5565b80601f0160208091040260200160405190810160405280929190818152602001828054610f96906135b5565b8015610fe35780601f10610fb857610100808354040283529160200191610fe3565b820191906000526020600020905b815481529060010190602001808311610fc657829003601f168201915b505050505090806002018054610ff8906135b5565b80601f0160208091040260200160405190810160405280929190818152602001828054611024906135b5565b80156110715780601f1061104657610100808354040283529160200191611071565b820191906000526020600020905b81548152906001019060200180831161105457829003601f168201915b505050505090806003018054611086906135b5565b80601f01602080910402602001604051908101604052809291908181526020018280546110b2906135b5565b80156110ff5780601f106110d4576101008083540402835291602001916110ff565b820191906000526020600020905b8154815290600101906020018083116110e257829003601f168201915b5050505050908060040160009054906101000a900473ffffffffffffffffffffffffffffffffffffffff16905085565b600a818154811061113f57600080fd5b9060005260206000209060050201600091509050806000015490806001018054611168906135b5565b80601f0160208091040260200160405190810160405280929190818152602001828054611194906135b5565b80156111e15780601f106111b6576101008083540402835291602001916111e1565b820191906000526020600020905b8154815290600101906020018083116111c457829003601f168201915b5050505050908060020180546111f6906135b5565b80601f0160208091040260200160405190810160405280929190818152602001828054611222906135b5565b801561126f5780601f106112445761010080835404028352916020019161126f565b820191906000526020600020905b81548152906001019060200180831161125257829003601f168201915b505050505090806003018054611284906135b5565b80601f01602080910402602001604051908101604052809291908181526020018280546112b0906135b5565b80156112fd5780601f106112d2576101008083540402835291602001916112fd565b820191906000526020600020905b8154815290600101906020018083116112e057829003601f168201915b5050505050908060040160009054906101000a900473ffffffffffffffffffffffffffffffffffffffff16905085565b60008054905090565b60008081905550565b6000600b60405180608001604052808581526020018681526020018481526020018773ffffffffffffffffffffffffffffffffffffffff1681525090806001815401808255809150506001900390600052602060002090600402016000909190919091506000820151816000015560208201518160010190816113c29190613792565b5060408201518160020190816113d89190613792565b5060608201518160030160006101000a81548173ffffffffffffffffffffffffffffffffffffffff021916908373ffffffffffffffffffffffffffffffffffffffff160217905550505060405180608001604052808481526020018581526020018381526020018673ffffffffffffffffffffffffffffffffffffffff16815250600660008773ffffffffffffffffffffffffffffffffffffffff1673ffffffffffffffffffffffffffffffffffffffff1681526020019081526020016000206000820151816000015560208201518160010190816114b79190613792565b5060408201518160020190816114cd9190613792565b5060608201518160030160006101000a81548173ffffffffffffffffffffffffffffffffffffffff021916908373ffffffffffffffffffffffffffffffffffffffff16021790555090505060019050949350505050565b600c818154811061153457600080fd5b906000526020600020906005020160009150905080600001549080600101805461155d906135b5565b80601f0160208091040260200160405190810160405280929190818152602001828054611589906135b5565b80156115d65780601f106115ab576101008083540402835291602001916115d6565b820191906000526020600020905b8154815290600101906020018083116115b957829003601f168201915b5050505050908060020180546115eb906135b5565b80601f0160208091040260200160405190810160405280929190818152602001828054611617906135b5565b80156116645780601f1061163957610100808354040283529160200191611664565b820191906000526020600020905b81548152906001019060200180831161164757829003601f168201915b505050505090806003018054611679906135b5565b80601f01602080910402602001604051908101604052809291908181526020018280546116a5906135b5565b80156116f25780601f106116c7576101008083540402835291602001916116f2565b820191906000526020600020905b8154815290600101906020018083116116d557829003601f168201915b5050505050908060040160009054906101000a900473ffffffffffffffffffffffffffffffffffffffff16905085565b6000600160009054906101000a900473ffffffffffffffffffffffffffffffffffffffff1673ffffffffffffffffffffffffffffffffffffffff163373ffffffffffffffffffffffffffffffffffffffff161461177e57600080fd5b600d60405180608001604052808581526020018773ffffffffffffffffffffffffffffffffffffffff1681526020018673ffffffffffffffffffffffffffffffffffffffff168152602001848152509080600181540180825580915050600190039060005260206000209060040201600090919091909150600082015181600001908161180b9190613792565b5060208201518160010160006101000a81548173ffffffffffffffffffffffffffffffffffffffff021916908373ffffffffffffffffffffffffffffffffffffffff16021790555060408201518160020160006101000a81548173ffffffffffffffffffffffffffffffffffffffff021916908373ffffffffffffffffffffffffffffffffffffffff16021790555060608201518160030190805190602001906118b6929190612b08565b50505060405180608001604052808481526020018673ffffffffffffffffffffffffffffffffffffffff1681526020018573ffffffffffffffffffffffffffffffffffffffff1681526020018381525060056000600460009054906101000a900473ffffffffffffffffffffffffffffffffffffffff1673ffffffffffffffffffffffffffffffffffffffff16636d4ce63c6040518163ffffffff1660e01b8152600401602060405180830381865afa158015611977573d6000803e3d6000fd5b505050506040513d601f19601f8201168201806040525081019061199b9190613879565b815260200190815260200160002060008201518160000190816119be9190613792565b5060208201518160010160006101000a81548173ffffffffffffffffffffffffffffffffffffffff021916908373ffffffffffffffffffffffffffffffffffffffff16021790555060408201518160020160006101000a81548173ffffffffffffffffffffffffffffffffffffffff021916908373ffffffffffffffffffffffffffffffffffffffff1602179055506060820151816003019080519060200190611a69929190612b08565b50905050600460009054906101000a900473ffffffffffffffffffffffffffffffffffffffff1673ffffffffffffffffffffffffffffffffffffffff1663d09de08a6040518163ffffffff1660e01b8152600401600060405180830381600087803b158015611ad757600080fd5b505af1158015611aeb573d6000803e3d6000fd5b5050505060019050949350505050565b6000600160009054906101000a900473ffffffffffffffffffffffffffffffffffffffff1673ffffffffffffffffffffffffffffffffffffffff163373ffffffffffffffffffffffffffffffffffffffff1614611b5757600080fd5b8160011515600960008373ffffffffffffffffffffffffffffffffffffffff1673ffffffffffffffffffffffffffffffffffffffff16815260200190815260200160002060009054906101000a900460ff16151514611beb576040517f08c379a0000000000000000000000000000000000000000000000000000000008152600401611be2906138f2565b60405180910390fd5b60005b6001600a80549050611c009190613400565b811015611d96578373ffffffffffffffffffffffffffffffffffffffff16600a8281548110611c3257611c31613434565b5b906000526020600020906005020160040160009054906101000a900473ffffffffffffffffffffffffffffffffffffffff1673ffffffffffffffffffffffffffffffffffffffff1603611d8357600a600182611c8e9190613463565b81548110611c9f57611c9e613434565b5b9060005260206000209060050201600a8281548110611cc157611cc0613434565b5b90600052602060002090600502016000820154816000015560018201816001019081611ced9190613928565b5060028201816002019081611d029190613928565b5060038201816003019081611d179190613928565b506004820160009054906101000a900473ffffffffffffffffffffffffffffffffffffffff168160040160006101000a81548173ffffffffffffffffffffffffffffffffffffffff021916908373ffffffffffffffffffffffffffffffffffffffff1602179055509050505b8080611d8e90613497565b915050611bee565b50600760008473ffffffffffffffffffffffffffffffffffffffff1673ffffffffffffffffffffffffffffffffffffffff168152602001908152602001600020600080820160009055600182016000611def9190612b61565b600282016000611dff9190612b61565b600382016000611e0f9190612b61565b6004820160006101000a81549073ffffffffffffffffffffffffffffffffffffffff021916905550506000600960008573ffffffffffffffffffffffffffffffffffffffff1673ffffffffffffffffffffffffffffffffffffffff16815260200190815260200160002060006101000a81548160ff0219169083151502179055506001915050919050565b600080600090505b6001600b80549050611eb49190613400565b811015612035578273ffffffffffffffffffffffffffffffffffffffff16600b8281548110611ee657611ee5613434565b5b906000526020600020906004020160030160009054906101000a900473ffffffffffffffffffffffffffffffffffffffff1673ffffffffffffffffffffffffffffffffffffffff160361202257600b600182611f429190613463565b81548110611f5357611f52613434565b5b9060005260206000209060040201600b8281548110611f7557611f74613434565b5b90600052602060002090600402016000820154816000015560018201816001019081611fa19190613928565b5060028201816002019081611fb69190613928565b506003820160009054906101000a900473ffffffffffffffffffffffffffffffffffffffff168160030160006101000a81548173ffffffffffffffffffffffffffffffffffffffff021916908373ffffffffffffffffffffffffffffffffffffffff1602179055509050505b808061202d90613497565b915050611ea2565b50600660008373ffffffffffffffffffffffffffffffffffffffff1673ffffffffffffffffffffffffffffffffffffffff16815260200190815260200160002060008082016000905560018201600061208e9190612b61565b60028201600061209e9190612b61565b6003820160006101000a81549073ffffffffffffffffffffffffffffffffffffffff0219169055505060019050919050565b600d81815481106120e057600080fd5b9060005260206000209060040201600091509050806000018054612103906135b5565b80601f016020809104026020016040519081016040528092919081815260200182805461212f906135b5565b801561217c5780601f106121515761010080835404028352916020019161217c565b820191906000526020600020905b81548152906001019060200180831161215f57829003601f168201915b5050505050908060010160009054906101000a900473ffffffffffffffffffffffffffffffffffffffff16908060020160009054906101000a900473ffffffffffffffffffffffffffffffffffffffff16905083565b600b81815481106121e257600080fd5b906000526020600020906004020160009150905080600001549080600101805461220b906135b5565b80601f0160208091040260200160405190810160405280929190818152602001828054612237906135b5565b80156122845780601f1061225957610100808354040283529160200191612284565b820191906000526020600020905b81548152906001019060200180831161226757829003601f168201915b505050505090806002018054612299906135b5565b80601f01602080910402602001604051908101604052809291908181526020018280546122c5906135b5565b80156123125780601f106122e757610100808354040283529160200191612312565b820191906000526020600020905b8154815290600101906020018083116122f557829003601f168201915b5050505050908060030160009054906101000a900473ffffffffffffffffffffffffffffffffffffffff16905084565b6000600260009054906101000a900473ffffffffffffffffffffffffffffffffffffffff1673ffffffffffffffffffffffffffffffffffffffff163373ffffffffffffffffffffffffffffffffffffffff161461239e57600080fd5b60005b6001600c805490506123b39190613400565b811015612549578273ffffffffffffffffffffffffffffffffffffffff16600c82815481106123e5576123e4613434565b5b906000526020600020906005020160040160009054906101000a900473ffffffffffffffffffffffffffffffffffffffff1673ffffffffffffffffffffffffffffffffffffffff160361253657600c6001826124419190613463565b8154811061245257612451613434565b5b9060005260206000209060050201600c828154811061247457612473613434565b5b906000526020600020906005020160008201548160000155600182018160010190816124a09190613928565b50600282018160020190816124b59190613928565b50600382018160030190816124ca9190613928565b506004820160009054906101000a900473ffffffffffffffffffffffffffffffffffffffff168160040160006101000a81548173ffffffffffffffffffffffffffffffffffffffff021916908373ffffffffffffffffffffffffffffffffffffffff1602179055509050505b808061254190613497565b9150506123a1565b50600860008373ffffffffffffffffffffffffffffffffffffffff1673ffffffffffffffffffffffffffffffffffffffff1681526020019081526020016000206000808201600090556001820160006125a29190612b61565b6002820160006125b29190612b61565b6003820160006125c29190612b61565b6004820160006101000a81549073ffffffffffffffffffffffffffffffffffffffff0219169055505060019050919050565b60016000808282546126069190613463565b92505081905550565b60008560001515600960008373ffffffffffffffffffffffffffffffffffffffff1673ffffffffffffffffffffffffffffffffffffffff16815260200190815260200160002060009054906101000a900460ff161515146126a5576040517f08c379a000000000000000000000000000000000000000000000000000000000815260040161269c90613a5c565b60405180910390fd5b600a6040518060a001604052808781526020018881526020018681526020018581526020018973ffffffffffffffffffffffffffffffffffffffff16815250908060018154018082558091505060019003906000526020600020906005020160009091909190915060008201518160000155602082015181600101908161272c9190613792565b5060408201518160020190816127429190613792565b5060608201518160030190816127589190613792565b5060808201518160040160006101000a81548173ffffffffffffffffffffffffffffffffffffffff021916908373ffffffffffffffffffffffffffffffffffffffff16021790555050506040518060a001604052808681526020018781526020018581526020018481526020018873ffffffffffffffffffffffffffffffffffffffff16815250600760008973ffffffffffffffffffffffffffffffffffffffff1673ffffffffffffffffffffffffffffffffffffffff16815260200190815260200160002060008201518160000155602082015181600101908161283d9190613792565b5060408201518160020190816128539190613792565b5060608201518160030190816128699190613792565b5060808201518160040160006101000a81548173ffffffffffffffffffffffffffffffffffffffff021916908373ffffffffffffffffffffffffffffffffffffffff1602179055509050506001600960008973ffffffffffffffffffffffffffffffffffffffff1673ffffffffffffffffffffffffffffffffffffffff16815260200190815260200160002060006101000a81548160ff021916908315150217905550600191505095945050505050565b6007602052806000526040600020600091509050806000015490806001018054612943906135b5565b80601f016020809104026020016040519081016040528092919081815260200182805461296f906135b5565b80156129bc5780601f10612991576101008083540402835291602001916129bc565b820191906000526020600020905b81548152906001019060200180831161299f57829003601f168201915b5050505050908060020180546129d1906135b5565b80601f01602080910402602001604051908101604052809291908181526020018280546129fd906135b5565b8015612a4a5780601f10612a1f57610100808354040283529160200191612a4a565b820191906000526020600020905b815481529060010190602001808311612a2d57829003601f168201915b505050505090806003018054612a5f906135b5565b80601f0160208091040260200160405190810160405280929190818152602001828054612a8b906135b5565b8015612ad85780601f10612aad57610100808354040283529160200191612ad8565b820191906000526020600020905b815481529060010190602001808311612abb57829003601f168201915b5050505050908060040160009054906101000a900473ffffffffffffffffffffffffffffffffffffffff16905085565b828054828255906000526020600020908101928215612b50579160200282015b82811115612b4f578251829081612b3f9190613792565b5091602001919060010190612b28565b5b509050612b5d9190612ba1565b5090565b508054612b6d906135b5565b6000825580601f10612b7f5750612b9e565b601f016020900490600052602060002090810190612b9d9190612bc5565b5b50565b5b80821115612bc15760008181612bb89190612b61565b50600101612ba2565b5090565b5b80821115612bde576000816000905550600101612bc6565b5090565b6000604051905090565b600080fd5b600080fd5b600073ffffffffffffffffffffffffffffffffffffffff82169050919050565b6000612c2182612bf6565b9050919050565b612c3181612c16565b8114612c3c57600080fd5b50565b600081359050612c4e81612c28565b92915050565b600060208284031215612c6a57612c69612bec565b5b6000612c7884828501612c3f565b91505092915050565b60008115159050919050565b612c9681612c81565b82525050565b6000602082019050612cb16000830184612c8d565b92915050565b6000612cc282612bf6565b9050919050565b612cd281612cb7565b8114612cdd57600080fd5b50565b600081359050612cef81612cc9565b92915050565b6000819050919050565b612d0881612cf5565b8114612d1357600080fd5b50565b600081359050612d2581612cff565b92915050565b600080600060608486031215612d4457612d43612bec565b5b6000612d5286828701612ce0565b9350506020612d6386828701612ce0565b9250506040612d7486828701612d16565b9150509250925092565b600060208284031215612d9457612d93612bec565b5b6000612da284828501612ce0565b91505092915050565b600080fd5b600080fd5b6000601f19601f8301169050919050565b7f4e487b7100000000000000000000000000000000000000000000000000000000600052604160045260246000fd5b612dfe82612db5565b810181811067ffffffffffffffff82111715612e1d57612e1c612dc6565b5b80604052505050565b6000612e30612be2565b9050612e3c8282612df5565b919050565b600067ffffffffffffffff821115612e5c57612e5b612dc6565b5b612e6582612db5565b9050602081019050919050565b82818337600083830152505050565b6000612e94612e8f84612e41565b612e26565b905082815260208101848484011115612eb057612eaf612db0565b5b612ebb848285612e72565b509392505050565b600082601f830112612ed857612ed7612dab565b5b8135612ee8848260208601612e81565b91505092915050565b600080600080600060a08688031215612f0d57612f0c612bec565b5b6000612f1b88828901612ce0565b955050602086013567ffffffffffffffff811115612f3c57612f3b612bf1565b5b612f4888828901612ec3565b9450506040612f5988828901612d16565b935050606086013567ffffffffffffffff811115612f7a57612f79612bf1565b5b612f8688828901612ec3565b925050608086013567ffffffffffffffff811115612fa757612fa6612bf1565b5b612fb388828901612ec3565b9150509295509295909350565b600060208284031215612fd657612fd5612bec565b5b6000612fe484828501612d16565b91505092915050565b600081519050919050565b600082825260208201905092915050565b60005b8381101561302757808201518184015260208101905061300c565b60008484015250505050565b600061303e82612fed565b6130488185612ff8565b9350613058818560208601613009565b61306181612db5565b840191505092915050565b61307581612cb7565b82525050565b600060608201905081810360008301526130958186613033565b90506130a4602083018561306c565b6130b1604083018461306c565b949350505050565b6130c281612cf5565b82525050565b6130d181612c16565b82525050565b60006080820190506130ec60008301876130b9565b81810360208301526130fe8186613033565b905081810360408301526131128185613033565b905061312160608301846130c8565b95945050505050565b600060a08201905061313f60008301886130b9565b81810360208301526131518187613033565b905081810360408301526131658186613033565b905081810360608301526131798185613033565b9050613188608083018461306c565b9695505050505050565b60006020820190506131a760008301846130b9565b92915050565b600080600080608085870312156131c7576131c6612bec565b5b60006131d587828801612c3f565b945050602085013567ffffffffffffffff8111156131f6576131f5612bf1565b5b61320287828801612ec3565b935050604061321387828801612d16565b925050606085013567ffffffffffffffff81111561323457613233612bf1565b5b61324087828801612ec3565b91505092959194509250565b600067ffffffffffffffff82111561326757613266612dc6565b5b602082029050602081019050919050565b600080fd5b600061329061328b8461324c565b612e26565b905080838252602082019050602084028301858111156132b3576132b2613278565b5b835b818110156132fa57803567ffffffffffffffff8111156132d8576132d7612dab565b5b8086016132e58982612ec3565b855260208501945050506020810190506132b5565b5050509392505050565b600082601f83011261331957613318612dab565b5b813561332984826020860161327d565b91505092915050565b6000806000806080858703121561334c5761334b612bec565b5b600061335a87828801612c3f565b945050602061336b87828801612ce0565b935050604085013567ffffffffffffffff81111561338c5761338b612bf1565b5b61339887828801612ec3565b925050606085013567ffffffffffffffff8111156133b9576133b8612bf1565b5b6133c587828801613304565b91505092959194509250565b7f4e487b7100000000000000000000000000000000000000000000000000000000600052601160045260246000fd5b600061340b82612cf5565b915061341683612cf5565b925082820390508181111561342e5761342d6133d1565b5b92915050565b7f4e487b7100000000000000000000000000000000000000000000000000000000600052603260045260246000fd5b600061346e82612cf5565b915061347983612cf5565b9250828201905080821115613491576134906133d1565b5b92915050565b60006134a282612cf5565b91507fffffffffffffffffffffffffffffffffffffffffffffffffffffffffffffffff82036134d4576134d36133d1565b5b600182019050919050565b60008160601b9050919050565b60006134f7826134df565b9050919050565b6000613509826134ec565b9050919050565b61352161351c82612cb7565b6134fe565b82525050565b60006135338284613510565b60148201915081905092915050565b600061354d826134ec565b9050919050565b61356561356082612c16565b613542565b82525050565b60006135778284613554565b60148201915081905092915050565b7f4e487b7100000000000000000000000000000000000000000000000000000000600052602260045260246000fd5b600060028204905060018216806135cd57607f821691505b6020821081036135e0576135df613586565b5b50919050565b60008190508160005260206000209050919050565b60006020601f8301049050919050565b600082821b905092915050565b6000600883026136487fffffffffffffffffffffffffffffffffffffffffffffffffffffffffffffffff8261360b565b613652868361360b565b95508019841693508086168417925050509392505050565b6000819050919050565b600061368f61368a61368584612cf5565b61366a565b612cf5565b9050919050565b6000819050919050565b6136a983613674565b6136bd6136b582613696565b848454613618565b825550505050565b600090565b6136d26136c5565b6136dd8184846136a0565b505050565b5b81811015613701576136f66000826136ca565b6001810190506136e3565b5050565b601f82111561374657613717816135e6565b613720846135fb565b8101602085101561372f578190505b61374361373b856135fb565b8301826136e2565b50505b505050565b600082821c905092915050565b60006137696000198460080261374b565b1980831691505092915050565b60006137828383613758565b9150826002028217905092915050565b61379b82612fed565b67ffffffffffffffff8111156137b4576137b3612dc6565b5b6137be82546135b5565b6137c9828285613705565b600060209050601f8311600181146137fc57600084156137ea578287015190505b6137f48582613776565b86555061385c565b601f19841661380a866135e6565b60005b828110156138325784890151825560018201915060208501945060208101905061380d565b8683101561384f578489015161384b601f891682613758565b8355505b6001600288020188555050505b505050505050565b60008151905061387381612cff565b92915050565b60006020828403121561388f5761388e612bec565b5b600061389d84828501613864565b91505092915050565b7f446f63746f722069732074686572650000000000000000000000000000000000600082015250565b60006138dc600f83612ff8565b91506138e7826138a6565b602082019050919050565b6000602082019050818103600083015261390b816138cf565b9050919050565b600081549050613921816135b5565b9050919050565b818103613936575050613a0e565b61393f82613912565b67ffffffffffffffff81111561395857613957612dc6565b5b61396282546135b5565b61396d828285613705565b6000601f83116001811461399c576000841561398a578287015490505b6139948582613776565b865550613a07565b601f1984166139aa876135e6565b96506139b5866135e6565b60005b828110156139dd578489015482556001820191506001850194506020810190506139b8565b868310156139fa57848901546139f6601f891682613758565b8355505b6001600288020188555050505b5050505050505b565b7f446f63746f72206973206e6f7420746865726500000000000000000000000000600082015250565b6000613a46601383612ff8565b9150613a5182613a10565b602082019050919050565b60006020820190508181036000830152613a7581613a39565b905091905056fea2646970667358221220541c6ed44cbbb9921a31aa5a06a34aa13a8a1f0476edbc9cfa90414ebee4c9a264736f6c63430008110033",
  "immutableReferences": {},
  "source": "// SPDX-License-Identifier: GPL-3.0\r\npragma experimental ABIEncoderV2;\r\npragma solidity  >=0.5.0 <0.9.0;\r\n\r\nimport \"./counter.sol\";\r\ncontract RxChain is counter{\r\n    \r\n    address Doc;\r\n    address Pharm;\r\n    address payable Pat;\r\n\r\n    //uint256 PresID;\r\n    counter private PresID;\r\n\r\n    //to check if the prescription is valid\r\n    bool isvalid=false;\r\n  \r\n    struct PresDetails{\r\n           string PresDate;\r\n           address Pat;\r\n           address Doc;\r\n           string[] medicines;}\r\n\r\n    struct Patient{\r\n   \r\n    uint256 age;\r\n    string name;\r\n    string email;\r\n    address payable Pat;}\r\n\r\n    struct Doctor{\r\n\r\n    uint256 age;\r\n    string name;\r\n    string email;\r\n    //clinic or hospital name\r\n    string clinic_name;\r\n    address Doc;}\r\n\r\n    struct Pharmacist{\r\n\r\n    uint256 age;\r\n    string name;\r\n    string email;\r\n    //store address\r\n    string store_address;\r\n    address Pharm;}\r\n\r\n\r\n\r\n    mapping(uint256=>PresDetails) public prescription;\r\n    mapping (address=>Patient) public patient_membership;\r\n    mapping (address=>Doctor) public doctor_membership;\r\n    mapping (address=>Pharmacist) public pharmacist_membership;\r\n    \r\n    //doctors address mapped to the whether they exist or not\r\n    mapping(address => bool) public genuine_doctors;\r\n    \r\n    //doctors_list \r\n    Doctor[] public doctors_list;\r\n\r\n    //patients_list to add_new_patients\r\n    Patient[] public patients_list;\r\n\r\n    //pharmacists_list to add_new_pharmacists\r\n    Pharmacist[] public pharmacists_list;\r\n\r\n     //prescription_list \r\n    PresDetails[] public prescription_list;\r\n\r\n    //deposits mapping\r\n    mapping (address=>uint256) private deposits;\r\n     \r\n  \r\n    modifier onlyDoctor{\r\n             require(msg.sender == Doc);\r\n             _;\r\n    }\r\n    modifier onlyPatient{\r\n             require(msg.sender == Pat);\r\n             _;\r\n    }\r\n    modifier onlyPharmacist{\r\n           require(msg.sender==Pharm);\r\n             _;\r\n    }\r\n    modifier DoctorListed(address _doc) {\r\n    require(genuine_doctors[_doc] == false,\"Doctor is not there\");\r\n    _;\r\n    }\r\n     modifier DoctorAlreadyListed(address _doc) {\r\n    require(genuine_doctors[_doc] == true,\"Doctor is there\");\r\n    _;\r\n    }\r\n   \r\n   //Registering the new Doctor\r\n    function Doctor_Register(address doc_new,string memory _name, uint256 age,string memory _email,string memory _clinic_name) public   \r\n    DoctorListed(doc_new) returns(bool) \r\n  {\r\n     \r\n    doctors_list.push(Doctor({name:_name, age:age,email:_email,clinic_name:_clinic_name,Doc:doc_new}));\r\n    doctor_membership[doc_new]=Doctor({name:_name, age:age,email:_email,clinic_name:_clinic_name,Doc:doc_new});\r\n    genuine_doctors[doc_new]=true;\r\n      \r\n    return true;\r\n  }\r\n   //De-Registering the Doctor\r\n   function Doctor_Unregister(address doc_new) onlyDoctor public   \r\n    DoctorAlreadyListed(doc_new) returns(bool) \r\n  {\r\n     //deleting from array\r\n     for(uint256 i = 0; i < doctors_list.length - 1; i++){\r\n        if(doctors_list[i].Doc == doc_new){\r\n          doctors_list[i] = doctors_list[i+1];\r\n        }\r\n      }\r\n    //deleteing from mapping\r\n    delete doctor_membership[doc_new];\r\n    genuine_doctors[doc_new]=false;\r\n    return true;\r\n  }\r\n   //Registering the new Patient\r\n   function Patient_Register(address payable pat_new,string memory _name, uint256 age,string memory _email) public   \r\n     returns(bool) \r\n  {\r\n     \r\n    patients_list.push(Patient({name:_name, age:age,email:_email,Pat:pat_new}));\r\n    patient_membership[pat_new]=Patient({name:_name,age:age,email:_email,Pat:pat_new});\r\n    return true;\r\n  }\r\n\r\n  //Unregistering the new Patient\r\n   function Patient_Unegister(address payable pat_new) public   \r\n     returns(bool) \r\n  {\r\n     //deleting from array\r\n     for(uint256 i = 0; i < patients_list.length - 1; i++){\r\n        if(patients_list[i].Pat == pat_new){\r\n          patients_list[i] = patients_list[i+1];\r\n        }\r\n      }\r\n    //deleting from mapping\r\n    delete patient_membership[pat_new];\r\n\r\n   \r\n    return true;\r\n  }\r\n   //Registering the new pharmacist\r\n    function Pharmacy_Register(address pharm_new,string memory _name, uint256 age,string memory _email,string memory _store_address) public   \r\n    onlyPharmacist returns(bool) \r\n  {\r\n      \r\n    pharmacists_list.push(Pharmacist({name:_name, age:age,email:_email,store_address:_store_address,Pharm:pharm_new}));\r\n    pharmacist_membership[pharm_new]=Pharmacist({name:_name, age:age,email:_email,store_address:_store_address,Pharm:pharm_new});\r\n  \r\n    return true;\r\n  }\r\n //Unregistering the pharmacist\r\n\r\n    function Pharmacy_Unregister(address pharm_new) public   \r\n    onlyPharmacist returns(bool) \r\n  {\r\n     //deleting from array\r\n     for(uint256 i = 0; i < pharmacists_list.length - 1; i++){\r\n        if(pharmacists_list[i].Pharm == pharm_new){\r\n          pharmacists_list[i] = pharmacists_list[i+1];\r\n        }\r\n      }\r\n    //deleting from mapping\r\n    delete pharmacist_membership[pharm_new];\r\n\r\n    return true;\r\n  }\r\n  //adding prescription\r\n  function Prescription_Register(address payable _Pat, address _Doc, string memory _PresDate,string[] memory medicines) public   \r\n    onlyDoctor returns(bool) \r\n  {\r\n     \r\n\r\n    prescription_list.push(PresDetails({PresDate:_PresDate,Pat:_Pat,Doc:_Doc,medicines:medicines}));\r\n    prescription[PresID.get()]=PresDetails({PresDate:_PresDate,Pat:_Pat,Doc:_Doc,medicines:medicines});\r\n    PresID.increment();\r\n    return true;\r\n  }\r\n\r\n\r\n\r\n\r\n    //validating the prescription\r\n    function validate_prescription(address _pat, address _doc, uint pres_id) public onlyPharmacist returns (bool) {\r\n\r\n        if(keccak256(abi.encodePacked(patient_membership[_pat].Pat))==keccak256(abi.encodePacked((prescription[pres_id].Pat))))\r\n        {\r\n                 if(keccak256(abi.encodePacked(doctor_membership[_doc].Doc))==keccak256(abi.encodePacked( prescription[pres_id].Doc)))\r\n                 \r\n                {isvalid=true;\r\n                return true;}\r\n           \r\n        }\r\n        return false;\r\n       \r\n    \r\n    }\r\n    /*\r\n    function pay_to_pharmacist(uint256 amount) public payable onlyPatient returns (bool)\r\n    {\r\n        if (isvalid==true)\r\n        {\r\n              require(msg.value == amount);\r\n              //msg.sender.transfer(amount);\r\n              deposits[msg.sender] += msg.value;\r\n              return  true;\r\n\r\n         }\r\n         return false;\r\n\r\n    }\r\n    */\r\n\r\n    function sendBal(address payable receiver) public payable onlyPatient returns (bool){\r\n        if (isvalid==true)\r\n        {\r\n            uint256 amount = msg.value;\r\n            for(uint256 i = 0; i < pharmacists_list.length - 1; i++)\r\n               {\r\n                if(pharmacists_list[i].Pharm == receiver){\r\n                receiver.transfer(amount);\r\n                deposits[msg.sender] += amount;\r\n                return true;\r\n               }\r\n               }\r\n            \r\n      }\r\n      return false;\r\n         \r\n}\r\n    \r\n}",
  "sourcePath": "D:\\Final_V2\\contracts\\RxChain.sol",
  "compiler": {
    "name": "solc",
    "version": "0.8.17+commit.8df45f5f.Emscripten.clang"
  },
  "schemaVersion": "3.4.10",
  "updatedAt": "2022-11-08T19:16:42.885Z",
  "networkType": "ethereum",
  "devdoc": {
    "kind": "dev",
    "methods": {},
    "version": 1
  },
  "userdoc": {
    "kind": "user",
    "methods": {},
    "version": 1
  }
}