{
  "contractName": "RxChain",
  "abi": [
    {
      "inputs": [],
      "stateMutability": "nonpayable",
      "type": "constructor"
    },
    {
      "anonymous": false,
      "inputs": [
        {
          "indexed": false,
          "internalType": "address",
          "name": "doc_new",
          "type": "address"
        },
        {
          "indexed": false,
          "internalType": "string",
          "name": "_name",
          "type": "string"
        },
        {
          "indexed": false,
          "internalType": "uint256",
          "name": "age",
          "type": "uint256"
        },
        {
          "indexed": false,
          "internalType": "string",
          "name": "_email",
          "type": "string"
        },
        {
          "indexed": false,
          "internalType": "string",
          "name": "_clinic_name",
          "type": "string"
        },
        {
          "indexed": false,
          "internalType": "bool",
          "name": "status",
          "type": "bool"
        }
      ],
      "name": "Doctor_Register_status",
      "type": "event"
    },
    {
      "anonymous": false,
      "inputs": [
        {
          "indexed": false,
          "internalType": "address",
          "name": "doc_new",
          "type": "address"
        },
        {
          "indexed": false,
          "internalType": "bool",
          "name": "status",
          "type": "bool"
        }
      ],
      "name": "Doctor_Unregister_status",
      "type": "event"
    },
    {
      "anonymous": false,
      "inputs": [
        {
          "indexed": false,
          "internalType": "address payable",
          "name": "pat_new",
          "type": "address"
        },
        {
          "indexed": false,
          "internalType": "string",
          "name": "_name",
          "type": "string"
        },
        {
          "indexed": false,
          "internalType": "uint256",
          "name": "age",
          "type": "uint256"
        },
        {
          "indexed": false,
          "internalType": "string",
          "name": "_email",
          "type": "string"
        },
        {
          "indexed": false,
          "internalType": "bool",
          "name": "status",
          "type": "bool"
        }
      ],
      "name": "Patient_Register_status",
      "type": "event"
    },
    {
      "anonymous": false,
      "inputs": [
        {
          "indexed": false,
          "internalType": "address payable",
          "name": "pat_new",
          "type": "address"
        },
        {
          "indexed": false,
          "internalType": "bool",
          "name": "status",
          "type": "bool"
        }
      ],
      "name": "Patient_Unregister_status",
      "type": "event"
    },
    {
      "anonymous": false,
      "inputs": [
        {
          "indexed": false,
          "internalType": "address payable",
          "name": "pharm_new",
          "type": "address"
        },
        {
          "indexed": false,
          "internalType": "string",
          "name": "_name",
          "type": "string"
        },
        {
          "indexed": false,
          "internalType": "string",
          "name": "_email",
          "type": "string"
        },
        {
          "indexed": false,
          "internalType": "string",
          "name": "_store_address",
          "type": "string"
        },
        {
          "indexed": false,
          "internalType": "bool",
          "name": "status",
          "type": "bool"
        }
      ],
      "name": "Pharmacy_Register_status",
      "type": "event"
    },
    {
      "anonymous": false,
      "inputs": [
        {
          "indexed": false,
          "internalType": "address payable",
          "name": "pharm_new",
          "type": "address"
        },
        {
          "indexed": false,
          "internalType": "bool",
          "name": "status",
          "type": "bool"
        }
      ],
      "name": "Pharmacy_Unregister_status",
      "type": "event"
    },
    {
      "anonymous": false,
      "inputs": [
        {
          "indexed": false,
          "internalType": "address payable",
          "name": "_Pat",
          "type": "address"
        },
        {
          "indexed": false,
          "internalType": "address",
          "name": "_Doc",
          "type": "address"
        },
        {
          "indexed": false,
          "internalType": "string",
          "name": "_PresDate",
          "type": "string"
        },
        {
          "indexed": false,
          "internalType": "string",
          "name": "medicines",
          "type": "string"
        },
        {
          "indexed": false,
          "internalType": "bool",
          "name": "status",
          "type": "bool"
        }
      ],
      "name": "Prescription_Register_status",
      "type": "event"
    },
    {
      "anonymous": false,
      "inputs": [
        {
          "indexed": false,
          "internalType": "address payable",
          "name": "_pat",
          "type": "address"
        },
        {
          "indexed": false,
          "internalType": "address",
          "name": "_doc",
          "type": "address"
        },
        {
          "indexed": false,
          "internalType": "uint256",
          "name": "pres_id",
          "type": "uint256"
        },
        {
          "indexed": false,
          "internalType": "bool",
          "name": "status",
          "type": "bool"
        }
      ],
      "name": "Validation_status",
      "type": "event"
    },
    {
      "anonymous": false,
      "inputs": [
        {
          "indexed": false,
          "internalType": "address",
          "name": "_pat",
          "type": "address"
        },
        {
          "indexed": false,
          "internalType": "uint256",
          "name": "amount",
          "type": "uint256"
        },
        {
          "indexed": false,
          "internalType": "bool",
          "name": "status",
          "type": "bool"
        }
      ],
      "name": "add_Funds",
      "type": "event"
    },
    {
      "anonymous": false,
      "inputs": [
        {
          "indexed": false,
          "internalType": "address",
          "name": "_sender",
          "type": "address"
        },
        {
          "indexed": false,
          "internalType": "address",
          "name": "_receiver",
          "type": "address"
        },
        {
          "indexed": false,
          "internalType": "uint256",
          "name": "amount",
          "type": "uint256"
        },
        {
          "indexed": false,
          "internalType": "bool",
          "name": "status",
          "type": "bool"
        }
      ],
      "name": "settlepayment_status",
      "type": "event"
    },
    {
      "inputs": [
        {
          "internalType": "address",
          "name": "",
          "type": "address"
        }
      ],
      "name": "deposits",
      "outputs": [
        {
          "internalType": "uint256",
          "name": "",
          "type": "uint256"
        }
      ],
      "stateMutability": "view",
      "type": "function",
      "constant": true
    },
    {
      "inputs": [
        {
          "internalType": "address",
          "name": "",
          "type": "address"
        }
      ],
      "name": "genuine_doctors",
      "outputs": [
        {
          "internalType": "bool",
          "name": "",
          "type": "bool"
        }
      ],
      "stateMutability": "view",
      "type": "function",
      "constant": true
    },
    {
      "inputs": [
        {
          "internalType": "address",
          "name": "",
          "type": "address"
        }
      ],
      "name": "patient_membership",
      "outputs": [
        {
          "internalType": "bool",
          "name": "",
          "type": "bool"
        }
      ],
      "stateMutability": "view",
      "type": "function",
      "constant": true
    },
    {
      "inputs": [
        {
          "internalType": "address",
          "name": "",
          "type": "address"
        }
      ],
      "name": "pharmacy_membership",
      "outputs": [
        {
          "internalType": "bool",
          "name": "",
          "type": "bool"
        }
      ],
      "stateMutability": "view",
      "type": "function",
      "constant": true
    },
    {
      "inputs": [
        {
          "internalType": "uint256",
          "name": "",
          "type": "uint256"
        }
      ],
      "name": "pres",
      "outputs": [
        {
          "internalType": "uint256",
          "name": "",
          "type": "uint256"
        }
      ],
      "stateMutability": "view",
      "type": "function",
      "constant": true
    },
    {
      "inputs": [
        {
          "internalType": "uint256",
          "name": "",
          "type": "uint256"
        }
      ],
      "name": "pres_pat_mapping",
      "outputs": [
        {
          "internalType": "address",
          "name": "",
          "type": "address"
        }
      ],
      "stateMutability": "view",
      "type": "function",
      "constant": true
    },
    {
      "inputs": [
        {
          "internalType": "uint256",
          "name": "",
          "type": "uint256"
        }
      ],
      "name": "prescription",
      "outputs": [
        {
          "internalType": "string",
          "name": "PresDate",
          "type": "string"
        },
        {
          "internalType": "address payable",
          "name": "Pat",
          "type": "address"
        },
        {
          "internalType": "address",
          "name": "Doc",
          "type": "address"
        },
        {
          "internalType": "string",
          "name": "medicines",
          "type": "string"
        }
      ],
      "stateMutability": "view",
      "type": "function",
      "constant": true
    },
    {
      "inputs": [
        {
          "internalType": "address",
          "name": "",
          "type": "address"
        }
      ],
      "name": "prescription_membership",
      "outputs": [
        {
          "internalType": "bool",
          "name": "",
          "type": "bool"
        }
      ],
      "stateMutability": "view",
      "type": "function",
      "constant": true
    },
    {
      "inputs": [
        {
          "internalType": "uint256",
          "name": "",
          "type": "uint256"
        }
      ],
      "name": "total_pres",
      "outputs": [
        {
          "internalType": "uint256",
          "name": "",
          "type": "uint256"
        }
      ],
      "stateMutability": "view",
      "type": "function",
      "constant": true
    },
    {
      "inputs": [
        {
          "internalType": "address",
          "name": "doc_new",
          "type": "address"
        },
        {
          "internalType": "string",
          "name": "_name",
          "type": "string"
        },
        {
          "internalType": "uint256",
          "name": "age",
          "type": "uint256"
        },
        {
          "internalType": "string",
          "name": "_email",
          "type": "string"
        },
        {
          "internalType": "string",
          "name": "_clinic_name",
          "type": "string"
        }
      ],
      "name": "Doctor_Register",
      "outputs": [
        {
          "internalType": "bool",
          "name": "",
          "type": "bool"
        }
      ],
      "stateMutability": "nonpayable",
      "type": "function"
    },
    {
      "inputs": [
        {
          "internalType": "address",
          "name": "doc_new",
          "type": "address"
        }
      ],
      "name": "Doctor_Unregister",
      "outputs": [
        {
          "internalType": "bool",
          "name": "",
          "type": "bool"
        }
      ],
      "stateMutability": "nonpayable",
      "type": "function"
    },
    {
      "inputs": [
        {
          "internalType": "address payable",
          "name": "pat_new",
          "type": "address"
        },
        {
          "internalType": "string",
          "name": "_name",
          "type": "string"
        },
        {
          "internalType": "uint256",
          "name": "age",
          "type": "uint256"
        },
        {
          "internalType": "string",
          "name": "_email",
          "type": "string"
        }
      ],
      "name": "Patient_Register",
      "outputs": [
        {
          "internalType": "bool",
          "name": "",
          "type": "bool"
        }
      ],
      "stateMutability": "nonpayable",
      "type": "function"
    },
    {
      "inputs": [
        {
          "internalType": "address payable",
          "name": "pat_new",
          "type": "address"
        }
      ],
      "name": "Patient_Unregister",
      "outputs": [
        {
          "internalType": "bool",
          "name": "",
          "type": "bool"
        }
      ],
      "stateMutability": "nonpayable",
      "type": "function"
    },
    {
      "inputs": [
        {
          "internalType": "address payable",
          "name": "pharm_new",
          "type": "address"
        },
        {
          "internalType": "string",
          "name": "_name",
          "type": "string"
        },
        {
          "internalType": "string",
          "name": "_email",
          "type": "string"
        },
        {
          "internalType": "string",
          "name": "_store_address",
          "type": "string"
        }
      ],
      "name": "Pharmacy_Register",
      "outputs": [
        {
          "internalType": "bool",
          "name": "",
          "type": "bool"
        }
      ],
      "stateMutability": "nonpayable",
      "type": "function"
    },
    {
      "inputs": [
        {
          "internalType": "address payable",
          "name": "pharm_new",
          "type": "address"
        }
      ],
      "name": "Pharmacy_Unregister",
      "outputs": [
        {
          "internalType": "bool",
          "name": "",
          "type": "bool"
        }
      ],
      "stateMutability": "nonpayable",
      "type": "function"
    },
    {
      "inputs": [
        {
          "internalType": "address payable",
          "name": "_Pat",
          "type": "address"
        },
        {
          "internalType": "address",
          "name": "_Doc",
          "type": "address"
        },
        {
          "internalType": "string",
          "name": "_PresDate",
          "type": "string"
        },
        {
          "internalType": "string",
          "name": "medicines",
          "type": "string"
        }
      ],
      "name": "Prescription_Register",
      "outputs": [
        {
          "internalType": "bool",
          "name": "",
          "type": "bool"
        }
      ],
      "stateMutability": "nonpayable",
      "type": "function"
    },
    {
      "inputs": [
        {
          "internalType": "address payable",
          "name": "_pat",
          "type": "address"
        },
        {
          "internalType": "address",
          "name": "_doc",
          "type": "address"
        }
      ],
      "name": "validate_prescription",
      "outputs": [
        {
          "internalType": "bool",
          "name": "",
          "type": "bool"
        }
      ],
      "stateMutability": "nonpayable",
      "type": "function"
    },
    {
      "inputs": [
        {
          "internalType": "uint256",
          "name": "amount",
          "type": "uint256"
        }
      ],
      "name": "addFunds",
      "outputs": [
        {
          "internalType": "bool",
          "name": "",
          "type": "bool"
        },
        {
          "internalType": "uint256",
          "name": "",
          "type": "uint256"
        }
      ],
      "stateMutability": "payable",
      "type": "function",
      "payable": true
    },
    {
      "inputs": [
        {
          "internalType": "address payable",
          "name": "receiver",
          "type": "address"
        },
        {
          "internalType": "uint256",
          "name": "amount",
          "type": "uint256"
        }
      ],
      "name": "settlepayment",
      "outputs": [
        {
          "internalType": "bool",
          "name": "",
          "type": "bool"
        },
        {
          "internalType": "uint256",
          "name": "",
          "type": "uint256"
        }
      ],
      "stateMutability": "payable",
      "type": "function",
      "payable": true
    }
  ],
  "bytecode": "0x6080604052600060035534801561001557600080fd5b50336000806101000a81548173ffffffffffffffffffffffffffffffffffffffff021916908373ffffffffffffffffffffffffffffffffffffffff16021790555033600260006101000a81548173ffffffffffffffffffffffffffffffffffffffff021916908373ffffffffffffffffffffffffffffffffffffffff16021790555033600160006101000a81548173ffffffffffffffffffffffffffffffffffffffff021916908373ffffffffffffffffffffffffffffffffffffffff16021790555061290f806100e76000396000f3fe6080604052600436106101145760003560e01c80636670e579116100a0578063be99970511610064578063be99970514610466578063df66cc1e14610497578063e87d0c22146104d4578063f688dc4f14610511578063fc7e286d1461054e57610114565b80636670e579146103355780637df9679b1461037257806393854523146103af578063a5aadc9e146103ec578063b7b1c40e1461042957610114565b80632f0ec0ed116100e75780632f0ec0ed146102105780633a4725301461024d5780634c91a4b01461027e57806359f02e3b146102bb578063664ff5bc146102f857610114565b80630c6d9a6814610119578063112755661461015657806318c13a5c14610193578063287eda05146101d0575b600080fd5b34801561012557600080fd5b50610140600480360381019061013b919061188c565b61058b565b60405161014d91906118d4565b60405180910390f35b34801561016257600080fd5b5061017d6004803603810190610178919061188c565b6105ab565b60405161018a91906118d4565b60405180910390f35b34801561019f57600080fd5b506101ba60048036038101906101b59190611925565b6105cb565b6040516101c79190611961565b60405180910390f35b3480156101dc57600080fd5b506101f760048036038101906101f29190611925565b6105fe565b6040516102079493929190611a2d565b60405180910390f35b34801561021c57600080fd5b506102376004803603810190610232919061188c565b61077e565b60405161024491906118d4565b60405180910390f35b61026760048036038101906102629190611aac565b61079e565b604051610275929190611afb565b60405180910390f35b34801561028a57600080fd5b506102a560048036038101906102a09190611925565b610a5f565b6040516102b29190611b24565b60405180910390f35b3480156102c757600080fd5b506102e260048036038101906102dd919061188c565b610a83565b6040516102ef91906118d4565b60405180910390f35b34801561030457600080fd5b5061031f600480360381019061031a9190611c74565b610aa3565b60405161032c91906118d4565b60405180910390f35b34801561034157600080fd5b5061035c60048036038101906103579190611d2f565b610ba3565b60405161036991906118d4565b60405180910390f35b34801561037e57600080fd5b5061039960048036038101906103949190611dce565b610e02565b6040516103a691906118d4565b60405180910390f35b3480156103bb57600080fd5b506103d660048036038101906103d19190611dfb565b610ef9565b6040516103e391906118d4565b60405180910390f35b3480156103f857600080fd5b50610413600480360381019061040e919061188c565b610ff9565b60405161042091906118d4565b60405180910390f35b34801561043557600080fd5b50610450600480360381019061044b9190611dce565b611184565b60405161045d91906118d4565b60405180910390f35b610480600480360381019061047b9190611925565b61127b565b60405161048e929190611afb565b60405180910390f35b3480156104a357600080fd5b506104be60048036038101906104b99190611e9a565b611376565b6040516104cb91906118d4565b60405180910390f35b3480156104e057600080fd5b506104fb60048036038101906104f69190611eda565b611647565b60405161050891906118d4565b60405180910390f35b34801561051d57600080fd5b5061053860048036038101906105339190611925565b6117de565b6040516105459190611b24565b60405180910390f35b34801561055a57600080fd5b506105756004803603810190610570919061188c565b611802565b6040516105829190611b24565b60405180910390f35b60076020528060005260406000206000915054906101000a900460ff1681565b60066020528060005260406000206000915054906101000a900460ff1681565b60086020528060005260406000206000915054906101000a900473ffffffffffffffffffffffffffffffffffffffff1681565b600460205280600052604060002060009150905080600001805461062190611fd8565b80601f016020809104026020016040519081016040528092919081815260200182805461064d90611fd8565b801561069a5780601f1061066f5761010080835404028352916020019161069a565b820191906000526020600020905b81548152906001019060200180831161067d57829003601f168201915b5050505050908060010160009054906101000a900473ffffffffffffffffffffffffffffffffffffffff16908060020160009054906101000a900473ffffffffffffffffffffffffffffffffffffffff16908060030180546106fb90611fd8565b80601f016020809104026020016040519081016040528092919081815260200182805461072790611fd8565b80156107745780601f1061074957610100808354040283529160200191610774565b820191906000526020600020905b81548152906001019060200180831161075757829003601f168201915b5050505050905084565b60056020528060005260406000206000915054906101000a900460ff1681565b600080600260009054906101000a900473ffffffffffffffffffffffffffffffffffffffff1673ffffffffffffffffffffffffffffffffffffffff163373ffffffffffffffffffffffffffffffffffffffff16146107fb57600080fd5b82600c60003373ffffffffffffffffffffffffffffffffffffffff1673ffffffffffffffffffffffffffffffffffffffff16815260200190815260200160002054101561087d576040517f08c379a000000000000000000000000000000000000000000000000000000000815260040161087490612055565b60405180910390fd5b60011515600660008673ffffffffffffffffffffffffffffffffffffffff1673ffffffffffffffffffffffffffffffffffffffff16815260200190815260200160002060009054906101000a900460ff16151503610a12578373ffffffffffffffffffffffffffffffffffffffff166108fc849081150290604051600060405180830381858888f1935050505015801561091b573d6000803e3d6000fd5b5082600c60003373ffffffffffffffffffffffffffffffffffffffff1673ffffffffffffffffffffffffffffffffffffffff168152602001908152602001600020600082825461096b91906120a4565b9250508190555082600c60008673ffffffffffffffffffffffffffffffffffffffff1673ffffffffffffffffffffffffffffffffffffffff16815260200190815260200160002060008282546109c191906120d8565b925050819055507f778ce290d8cc92a2b9a8545befff3c46284da370f39fae301cd1fd0640d5688233858560016040516109fe949392919061216b565b60405180910390a160018391509150610a58565b7f778ce290d8cc92a2b9a8545befff3c46284da370f39fae301cd1fd0640d568823385856000604051610a48949392919061216b565b60405180910390a1600083915091505b9250929050565b600a8181548110610a6f57600080fd5b906000526020600020016000915090505481565b600b6020528060005260406000206000915054906101000a900460ff1681565b6000600160009054906101000a900473ffffffffffffffffffffffffffffffffffffffff1673ffffffffffffffffffffffffffffffffffffffff163373ffffffffffffffffffffffffffffffffffffffff1614610aff57600080fd5b6001600660008773ffffffffffffffffffffffffffffffffffffffff1673ffffffffffffffffffffffffffffffffffffffff16815260200190815260200160002060006101000a81548160ff0219169083151502179055507f3767c85506290f2df02c29b3885e71bf40c61f54ef409634aa59e5fbf35b5335858585856001604051610b8f9594939291906121b0565b60405180910390a160019050949350505050565b60008060009054906101000a900473ffffffffffffffffffffffffffffffffffffffff1673ffffffffffffffffffffffffffffffffffffffff163373ffffffffffffffffffffffffffffffffffffffff1614610bfe57600080fd5b60405180608001604052808481526020018673ffffffffffffffffffffffffffffffffffffffff1681526020018573ffffffffffffffffffffffffffffffffffffffff168152602001838152506004600060035481526020019081526020016000206000820151816000019081610c7591906123ba565b5060208201518160010160006101000a81548173ffffffffffffffffffffffffffffffffffffffff021916908373ffffffffffffffffffffffffffffffffffffffff16021790555060408201518160020160006101000a81548173ffffffffffffffffffffffffffffffffffffffff021916908373ffffffffffffffffffffffffffffffffffffffff1602179055506060820151816003019081610d1991906123ba565b509050508460086000600354815260200190815260200160002060006101000a81548173ffffffffffffffffffffffffffffffffffffffff021916908373ffffffffffffffffffffffffffffffffffffffff16021790555060096003549080600181540180825580915050600190039060005260206000200160009091909190915055600160036000828254610daf91906120d8565b925050819055507fffb21fe041dc56de6f10de484845d30fc7ae7bdec821b43b74a037e926aa29b8858585856001604051610dee95949392919061248c565b60405180910390a160019050949350505050565b6000600260009054906101000a900473ffffffffffffffffffffffffffffffffffffffff1673ffffffffffffffffffffffffffffffffffffffff163373ffffffffffffffffffffffffffffffffffffffff1614610e5e57600080fd5b6000600560008473ffffffffffffffffffffffffffffffffffffffff1673ffffffffffffffffffffffffffffffffffffffff16815260200190815260200160002060006101000a81548160ff0219169083151502179055507f710db87fb19357f7c23152008a82d108da73e8245ce518cbc67f26e62ba5f1a1826001604051610ee89291906124ed565b60405180910390a160019050919050565b6000600260009054906101000a900473ffffffffffffffffffffffffffffffffffffffff1673ffffffffffffffffffffffffffffffffffffffff163373ffffffffffffffffffffffffffffffffffffffff1614610f5557600080fd5b6001600560008773ffffffffffffffffffffffffffffffffffffffff1673ffffffffffffffffffffffffffffffffffffffff16815260200190815260200160002060006101000a81548160ff0219169083151502179055507f68274295f0cc152fad8a140774d951d9746c7e42e3d62ecb8d255059f0f14820858585856001604051610fe5959493929190612516565b60405180910390a160019050949350505050565b60008060009054906101000a900473ffffffffffffffffffffffffffffffffffffffff1673ffffffffffffffffffffffffffffffffffffffff163373ffffffffffffffffffffffffffffffffffffffff161461105457600080fd5b8160011515600760008373ffffffffffffffffffffffffffffffffffffffff1673ffffffffffffffffffffffffffffffffffffffff16815260200190815260200160002060009054906101000a900460ff161515146110e8576040517f08c379a00000000000000000000000000000000000000000000000000000000081526004016110df906125c3565b60405180910390fd5b6000600760008573ffffffffffffffffffffffffffffffffffffffff1673ffffffffffffffffffffffffffffffffffffffff16815260200190815260200160002060006101000a81548160ff0219169083151502179055507fb779bdee3cdad335c6d6afbd220c92352eb899f4581cecf9fb67b6b094adb0038360016040516111729291906125e3565b60405180910390a16001915050919050565b6000600160009054906101000a900473ffffffffffffffffffffffffffffffffffffffff1673ffffffffffffffffffffffffffffffffffffffff163373ffffffffffffffffffffffffffffffffffffffff16146111e057600080fd5b6000600660008473ffffffffffffffffffffffffffffffffffffffff1673ffffffffffffffffffffffffffffffffffffffff16815260200190815260200160002060006101000a81548160ff0219169083151502179055507fa0ec429d45761995106fcac32b2a7a3479e483e953047f70c1fceff709d82b7182600160405161126a9291906124ed565b60405180910390a160019050919050565b600080600260009054906101000a900473ffffffffffffffffffffffffffffffffffffffff1673ffffffffffffffffffffffffffffffffffffffff163373ffffffffffffffffffffffffffffffffffffffff16146112d857600080fd5b7fd8d674bc1a9361ec9b7116f45a1895db92249372dd5c0723f5b7d2ccff71d9ff3384600160405161130c9392919061260c565b60405180910390a182600c60003373ffffffffffffffffffffffffffffffffffffffff1673ffffffffffffffffffffffffffffffffffffffff168152602001908152602001600020600082825461136391906120d8565b9250508190555060018391509150915091565b6000600160009054906101000a900473ffffffffffffffffffffffffffffffffffffffff1673ffffffffffffffffffffffffffffffffffffffff163373ffffffffffffffffffffffffffffffffffffffff16146113d257600080fd5b600060011515600560008673ffffffffffffffffffffffffffffffffffffffff1673ffffffffffffffffffffffffffffffffffffffff16815260200190815260200160002060009054906101000a900460ff161515148015611484575060011515600760008573ffffffffffffffffffffffffffffffffffffffff1673ffffffffffffffffffffffffffffffffffffffff16815260200190815260200160002060009054906101000a900460ff161515145b156115fd5760005b60098054905081101561159e57846040516020016114aa919061268b565b604051602081830303815290604052805190602001206008600083815260200190815260200160002060009054906101000a900473ffffffffffffffffffffffffffffffffffffffff1660405160200161150491906126cf565b604051602081830303815290604052805190602001200361158b57600a819080600181540180825580915050600190039060005260206000200160009091909190915055600191507ffb3c9ae3b237b6f9d0a6efc244e7be94387990dc1898f182bbbfdaf401ff9465858583600160405161158294939291906126ea565b60405180910390a15b80806115969061272f565b91505061148c565b5060011515811515036115b5576001915050611641565b7ffb3c9ae3b237b6f9d0a6efc244e7be94387990dc1898f182bbbfdaf401ff946584846000806040516115eb94939291906127b2565b60405180910390a16000915050611641565b7ffb3c9ae3b237b6f9d0a6efc244e7be94387990dc1898f182bbbfdaf401ff9465848460008060405161163394939291906127b2565b60405180910390a160009150505b92915050565b60008060009054906101000a900473ffffffffffffffffffffffffffffffffffffffff1673ffffffffffffffffffffffffffffffffffffffff163373ffffffffffffffffffffffffffffffffffffffff16146116a257600080fd5b8560001515600760008373ffffffffffffffffffffffffffffffffffffffff1673ffffffffffffffffffffffffffffffffffffffff16815260200190815260200160002060009054906101000a900460ff16151514611736576040517f08c379a000000000000000000000000000000000000000000000000000000000815260040161172d90612843565b60405180910390fd5b6001600760008973ffffffffffffffffffffffffffffffffffffffff1673ffffffffffffffffffffffffffffffffffffffff16815260200190815260200160002060006101000a81548160ff0219169083151502179055507f7f480a9870921c24ef37c6f8b1a9398b86ac7cd79b47e5f9d315c6df56fae87e878787878760016040516117c896959493929190612863565b60405180910390a1600191505095945050505050565b600981815481106117ee57600080fd5b906000526020600020016000915090505481565b600c6020528060005260406000206000915090505481565b6000604051905090565b600080fd5b600080fd5b600073ffffffffffffffffffffffffffffffffffffffff82169050919050565b60006118598261182e565b9050919050565b6118698161184e565b811461187457600080fd5b50565b60008135905061188681611860565b92915050565b6000602082840312156118a2576118a1611824565b5b60006118b084828501611877565b91505092915050565b60008115159050919050565b6118ce816118b9565b82525050565b60006020820190506118e960008301846118c5565b92915050565b6000819050919050565b611902816118ef565b811461190d57600080fd5b50565b60008135905061191f816118f9565b92915050565b60006020828403121561193b5761193a611824565b5b600061194984828501611910565b91505092915050565b61195b8161184e565b82525050565b60006020820190506119766000830184611952565b92915050565b600081519050919050565b600082825260208201905092915050565b60005b838110156119b657808201518184015260208101905061199b565b60008484015250505050565b6000601f19601f8301169050919050565b60006119de8261197c565b6119e88185611987565b93506119f8818560208601611998565b611a01816119c2565b840191505092915050565b6000611a178261182e565b9050919050565b611a2781611a0c565b82525050565b60006080820190508181036000830152611a4781876119d3565b9050611a566020830186611a1e565b611a636040830185611952565b8181036060830152611a7581846119d3565b905095945050505050565b611a8981611a0c565b8114611a9457600080fd5b50565b600081359050611aa681611a80565b92915050565b60008060408385031215611ac357611ac2611824565b5b6000611ad185828601611a97565b9250506020611ae285828601611910565b9150509250929050565b611af5816118ef565b82525050565b6000604082019050611b1060008301856118c5565b611b1d6020830184611aec565b9392505050565b6000602082019050611b396000830184611aec565b92915050565b600080fd5b600080fd5b7f4e487b7100000000000000000000000000000000000000000000000000000000600052604160045260246000fd5b611b81826119c2565b810181811067ffffffffffffffff82111715611ba057611b9f611b49565b5b80604052505050565b6000611bb361181a565b9050611bbf8282611b78565b919050565b600067ffffffffffffffff821115611bdf57611bde611b49565b5b611be8826119c2565b9050602081019050919050565b82818337600083830152505050565b6000611c17611c1284611bc4565b611ba9565b905082815260208101848484011115611c3357611c32611b44565b5b611c3e848285611bf5565b509392505050565b600082601f830112611c5b57611c5a611b3f565b5b8135611c6b848260208601611c04565b91505092915050565b60008060008060808587031215611c8e57611c8d611824565b5b6000611c9c87828801611a97565b945050602085013567ffffffffffffffff811115611cbd57611cbc611829565b5b611cc987828801611c46565b935050604085013567ffffffffffffffff811115611cea57611ce9611829565b5b611cf687828801611c46565b925050606085013567ffffffffffffffff811115611d1757611d16611829565b5b611d2387828801611c46565b91505092959194509250565b60008060008060808587031215611d4957611d48611824565b5b6000611d5787828801611a97565b9450506020611d6887828801611877565b935050604085013567ffffffffffffffff811115611d8957611d88611829565b5b611d9587828801611c46565b925050606085013567ffffffffffffffff811115611db657611db5611829565b5b611dc287828801611c46565b91505092959194509250565b600060208284031215611de457611de3611824565b5b6000611df284828501611a97565b91505092915050565b60008060008060808587031215611e1557611e14611824565b5b6000611e2387828801611a97565b945050602085013567ffffffffffffffff811115611e4457611e43611829565b5b611e5087828801611c46565b9350506040611e6187828801611910565b925050606085013567ffffffffffffffff811115611e8257611e81611829565b5b611e8e87828801611c46565b91505092959194509250565b60008060408385031215611eb157611eb0611824565b5b6000611ebf85828601611a97565b9250506020611ed085828601611877565b9150509250929050565b600080600080600060a08688031215611ef657611ef5611824565b5b6000611f0488828901611877565b955050602086013567ffffffffffffffff811115611f2557611f24611829565b5b611f3188828901611c46565b9450506040611f4288828901611910565b935050606086013567ffffffffffffffff811115611f6357611f62611829565b5b611f6f88828901611c46565b925050608086013567ffffffffffffffff811115611f9057611f8f611829565b5b611f9c88828901611c46565b9150509295509295909350565b7f4e487b7100000000000000000000000000000000000000000000000000000000600052602260045260246000fd5b60006002820490506001821680611ff057607f821691505b60208210810361200357612002611fa9565b5b50919050565b7f496e73756666696369656e742066756e64730000000000000000000000000000600082015250565b600061203f601283611987565b915061204a82612009565b602082019050919050565b6000602082019050818103600083015261206e81612032565b9050919050565b7f4e487b7100000000000000000000000000000000000000000000000000000000600052601160045260246000fd5b60006120af826118ef565b91506120ba836118ef565b92508282039050818111156120d2576120d1612075565b5b92915050565b60006120e3826118ef565b91506120ee836118ef565b925082820190508082111561210657612105612075565b5b92915050565b6000819050919050565b600061213161212c6121278461182e565b61210c565b61182e565b9050919050565b600061214382612116565b9050919050565b600061215582612138565b9050919050565b6121658161214a565b82525050565b60006080820190506121806000830187611952565b61218d602083018661215c565b61219a6040830185611aec565b6121a760608301846118c5565b95945050505050565b600060a0820190506121c56000830188611a1e565b81810360208301526121d781876119d3565b905081810360408301526121eb81866119d3565b905081810360608301526121ff81856119d3565b905061220e60808301846118c5565b9695505050505050565b60008190508160005260206000209050919050565b60006020601f8301049050919050565b600082821b905092915050565b60006008830261227a7fffffffffffffffffffffffffffffffffffffffffffffffffffffffffffffffff8261223d565b612284868361223d565b95508019841693508086168417925050509392505050565b60006122b76122b26122ad846118ef565b61210c565b6118ef565b9050919050565b6000819050919050565b6122d18361229c565b6122e56122dd826122be565b84845461224a565b825550505050565b600090565b6122fa6122ed565b6123058184846122c8565b505050565b5b818110156123295761231e6000826122f2565b60018101905061230b565b5050565b601f82111561236e5761233f81612218565b6123488461222d565b81016020851015612357578190505b61236b6123638561222d565b83018261230a565b50505b505050565b600082821c905092915050565b600061239160001984600802612373565b1980831691505092915050565b60006123aa8383612380565b9150826002028217905092915050565b6123c38261197c565b67ffffffffffffffff8111156123dc576123db611b49565b5b6123e68254611fd8565b6123f182828561232d565b600060209050601f8311600181146124245760008415612412578287015190505b61241c858261239e565b865550612484565b601f19841661243286612218565b60005b8281101561245a57848901518255600182019150602085019450602081019050612435565b868310156124775784890151612473601f891682612380565b8355505b6001600288020188555050505b505050505050565b600060a0820190506124a16000830188611a1e565b6124ae6020830187611952565b81810360408301526124c081866119d3565b905081810360608301526124d481856119d3565b90506124e360808301846118c5565b9695505050505050565b60006040820190506125026000830185611a1e565b61250f60208301846118c5565b9392505050565b600060a08201905061252b6000830188611a1e565b818103602083015261253d81876119d3565b905061254c6040830186611aec565b818103606083015261255e81856119d3565b905061256d60808301846118c5565b9695505050505050565b7f446f63746f722069732074686572650000000000000000000000000000000000600082015250565b60006125ad600f83611987565b91506125b882612577565b602082019050919050565b600060208201905081810360008301526125dc816125a0565b9050919050565b60006040820190506125f86000830185611952565b61260560208301846118c5565b9392505050565b60006060820190506126216000830186611952565b61262e6020830185611aec565b61263b60408301846118c5565b949350505050565b60008160601b9050919050565b600061265b82612643565b9050919050565b600061266d82612650565b9050919050565b61268561268082611a0c565b612662565b82525050565b60006126978284612674565b60148201915081905092915050565b60006126b182612650565b9050919050565b6126c96126c48261184e565b6126a6565b82525050565b60006126db82846126b8565b60148201915081905092915050565b60006080820190506126ff6000830187611a1e565b61270c6020830186611952565b6127196040830185611aec565b61272660608301846118c5565b95945050505050565b600061273a826118ef565b91507fffffffffffffffffffffffffffffffffffffffffffffffffffffffffffffffff820361276c5761276b612075565b5b600182019050919050565b6000819050919050565b600061279c61279761279284612777565b61210c565b6118ef565b9050919050565b6127ac81612781565b82525050565b60006080820190506127c76000830187611a1e565b6127d46020830186611952565b6127e160408301856127a3565b6127ee60608301846118c5565b95945050505050565b7f446f63746f72206973206e6f7420746865726500000000000000000000000000600082015250565b600061282d601383611987565b9150612838826127f7565b602082019050919050565b6000602082019050818103600083015261285c81612820565b9050919050565b600060c0820190506128786000830189611952565b818103602083015261288a81886119d3565b90506128996040830187611aec565b81810360608301526128ab81866119d3565b905081810360808301526128bf81856119d3565b90506128ce60a08301846118c5565b97965050505050505056fea2646970667358221220787e11714cb09bea1b70bfd42fdab0404ce0de1f7d896f62cfe47fb96bdd56f064736f6c63430008110033",
  "immutableReferences": {},
  "source": "// SPDX-License-Identifier: GPL-3.0\n//pragma experimental ABIEncoderV2;\npragma solidity  >=0.5.0 <0.9.0;\n\ncontract RxChain{\n    \n    address Doc;\n    address payable Pharm;\n    address payable Pat;\n\n    //uint256 PresID;\n    uint256 PresID=0;\n\n    //to check if the prescription is valid\n    \n  \n    struct PresDetails{\n           string PresDate;\n           address payable Pat;\n           address Doc;\n           string medicines;}\n\n    struct Patient{\n   \n    uint256 age;\n    string name;\n    string email;\n    address payable Pat;}\n\n    struct Doctor{\n\n    uint256 age;\n    string name;\n    string email;\n    //clinic or hospital name\n    string clinic_name;\n    address Doc;}\n\n    struct Pharmacy{\n\n    string name;\n    string email;\n    //store address\n    string store_address;\n    address payable Pharm;\n    }\n    mapping(uint256=>PresDetails) public prescription;\n    mapping (address=>bool) public patient_membership;\n    mapping (address=>bool) public pharmacy_membership;\n    //doctors address mapped to the whether they exist or not\n    mapping(address => bool) public genuine_doctors;\n    \n    mapping (uint256 => address) public pres_pat_mapping;\n    \n    uint256[] public total_pres;\n    uint256[] public pres;\n\n    mapping(address=>bool) public prescription_membership;\n    //deposits mapping\n    mapping (address=>uint256) public deposits;\n     \n  \n    modifier onlyDoctor{\n             require(msg.sender == Doc);\n             _;\n    }\n    modifier onlyPatient{\n             require(payable(msg.sender) == Pat);\n             _;\n    }\n    modifier onlypharmacy{\n           require(payable(msg.sender) == Pharm);\n             _;\n    }\n    modifier DoctorListed(address _doc) {\n    require(genuine_doctors[_doc] == false,\"Doctor is not there\");\n    _;\n    }\n     modifier DoctorAlreadyListed(address _doc) {\n    require(genuine_doctors[_doc] == true,\"Doctor is there\");\n    _;\n    }\n\n   event Doctor_Register_status(\n   address doc_new,string _name, uint256 age,string _email,string _clinic_name, bool status\n   );\n    event Patient_Register_status(\n    address payable pat_new,string _name, uint256 age,string _email,bool status\n   );\n   event Pharmacy_Register_status(\n   address payable pharm_new,string _name, string _email,string _store_address, bool status\n   );\n   event Doctor_Unregister_status(\n   address doc_new,bool status\n   );\n    event Patient_Unregister_status(\n    address payable pat_new,bool status\n   );\n   event Pharmacy_Unregister_status(\n   address payable pharm_new,bool status\n   );\n   event Prescription_Register_status(\n    address payable _Pat, address _Doc, string _PresDate,string medicines,bool status\n   );\n   event Validation_status(\n    address payable _pat, address _doc, uint pres_id,bool status\n   );\n   event add_Funds(\n    address _pat,uint256 amount,bool status\n   );\n   event settlepayment_status(\n    address _sender,address _receiver,uint256 amount,bool status\n   );\n\n  constructor() {\n    Doc = msg.sender;\n    Pat = payable(msg.sender);\n    Pharm = payable(msg.sender);\n\n  }\n\n   //Registering the new Doctor\n    function Doctor_Register(address doc_new,string memory _name, uint256 age,string memory _email,string memory _clinic_name) public   \n    onlyDoctor DoctorListed(doc_new) returns (bool)\n  {\n    genuine_doctors[doc_new]=true;\n    emit Doctor_Register_status(doc_new,_name,age,_email,_clinic_name,true);\n    return true;\n  }\n    //De-Registering the Doctor\n   function Doctor_Unregister(address doc_new) public onlyDoctor    \n    DoctorAlreadyListed(doc_new) returns(bool) \n  {\n    \n    genuine_doctors[doc_new]=false;\n    emit Doctor_Unregister_status(doc_new,true);\n    return true;\n  }\n  //Registering the new Patient\n   function Patient_Register(address payable pat_new,string memory _name, uint256 age,string memory _email) public onlyPatient   \n     returns(bool) \n  {\n     \n    //patients_list.push(Patient({name:_name, age:age,email:_email,Pat:pat_new}));\n    patient_membership[pat_new]=true;\n    emit Patient_Register_status(pat_new,_name,age,_email,true);\n    return true;\n  }\n\n  //Unregistering the new Patient\n   function Patient_Unregister(address payable pat_new) public onlyPatient   \n     returns(bool) \n  {\n    //deleting from mapping\n    patient_membership[pat_new]=false;\n    emit Patient_Unregister_status(pat_new,true);\n   \n    return true;\n  }\n  //Registering a pharmacist\n  function Pharmacy_Register(address payable pharm_new,string memory _name, string memory _email,string memory _store_address) public   \n  onlypharmacy returns(bool) \n  {\n      \n    \n    pharmacy_membership[pharm_new]=true;\n    emit Pharmacy_Register_status(pharm_new,_name,_email, _store_address,true);\n    return true;\n  }\n //Unregistering the pharmacist\n\n    function Pharmacy_Unregister(address payable pharm_new) public   \n    onlypharmacy returns(bool) \n  {\n    \n    //deleting from mapping\n    pharmacy_membership[pharm_new]=false;\n    emit Pharmacy_Unregister_status(pharm_new,true);\n    return true;\n  }\n  //adding prescription\n  function Prescription_Register(address payable _Pat, address _Doc, string memory _PresDate,string memory medicines) public   \n    onlyDoctor returns(bool) \n  {\n     \n\n    //prescription_list.push(PresDetails({PresDate:_PresDate,Pat:_Pat,Doc:_Doc,medicines:medicines}));\n    prescription[PresID]=PresDetails({PresDate:_PresDate,Pat:_Pat,Doc:_Doc,medicines:medicines});\n    pres_pat_mapping[PresID]=_Pat;\n    total_pres.push(PresID);\n    //prescription_membership[_Doc]=true;\n    PresID+=1;\n    emit Prescription_Register_status(_Pat,_Doc,_PresDate,medicines,true);\n    return true;\n  }\n\n    //validating the prescription\n    function validate_prescription(address payable _pat, address _doc) public onlypharmacy returns (bool) {\n        bool isvalid=false;\n        if(patient_membership[_pat]==true && genuine_doctors[_doc]==true)\n        {\n            for(uint256 i=0 ; i<total_pres.length;i++)\n            {\n                if (keccak256(abi.encodePacked(pres_pat_mapping[i])) == keccak256(abi.encodePacked(_pat)))\n                {\n                    pres.push(i);\n                    isvalid=true;\n                    emit Validation_status(_pat,_doc,i,true);\n                }\n            }\n           \n            \n            if(isvalid==true)\n            {\n              \n                return (true);\n            }\n            else\n            {   \n                emit Validation_status(_pat,_doc,0,false);\n                return (false);\n            }\n        }\n        else\n        {\n            emit Validation_status(_pat,_doc,0,false);\n            return (false);\n        }\n    \n    }\n\n    function addFunds(uint256 amount) public onlyPatient payable returns (bool,uint256)\n    {\n      emit add_Funds(msg.sender,amount,true);\n      deposits[msg.sender] += amount;\n      return (true,amount);\n    }\n\n    function settlepayment(address payable receiver,uint256 amount) public onlyPatient payable returns (bool,uint256)\n    {\n        \n           require(deposits[msg.sender] >= amount, \"Insufficient funds\");\n            //uint256 amount = msg.value;\n           if(pharmacy_membership[receiver]==true)\n           {\n                receiver.transfer(amount);\n                deposits[msg.sender] -= amount;\n                deposits[receiver] += amount;\n                emit settlepayment_status(msg.sender,receiver,amount,true);\n                return (true,amount);\n            }\n               \n      emit settlepayment_status(msg.sender,receiver,amount,false);\n      return (false,amount);\n         \n      }\n\n}",
  "sourcePath": "/Users/lakshyarawal/Desktop/526/Term Project/RxChain/contracts/RxChain.sol",
  "compiler": {
    "name": "solc",
    "version": "0.8.17+commit.8df45f5f.Emscripten.clang"
  },
  "schemaVersion": "3.4.10",
  "updatedAt": "2022-11-14T06:46:37.371Z",
  "networkType": "ethereum",
  "devdoc": {
    "kind": "dev",
    "methods": {},
    "version": 1
  },
  "userdoc": {
    "kind": "user",
    "methods": {},
    "version": 1
  }
}