{
  "contractName": "RxChain",
  "abi": [
    {
      "inputs": [],
      "stateMutability": "nonpayable",
      "type": "constructor"
    },
    {
      "anonymous": false,
      "inputs": [
        {
          "indexed": false,
          "internalType": "address payable",
          "name": "doc_new",
          "type": "address"
        },
        {
          "indexed": false,
          "internalType": "string",
          "name": "_name",
          "type": "string"
        },
        {
          "indexed": false,
          "internalType": "uint256",
          "name": "age",
          "type": "uint256"
        },
        {
          "indexed": false,
          "internalType": "string",
          "name": "_email",
          "type": "string"
        },
        {
          "indexed": false,
          "internalType": "string",
          "name": "_clinic_name",
          "type": "string"
        },
        {
          "indexed": false,
          "internalType": "bool",
          "name": "status",
          "type": "bool"
        }
      ],
      "name": "Doctor_Register_status",
      "type": "event"
    },
    {
      "anonymous": false,
      "inputs": [
        {
          "indexed": false,
          "internalType": "address payable",
          "name": "doc_new",
          "type": "address"
        },
        {
          "indexed": false,
          "internalType": "bool",
          "name": "status",
          "type": "bool"
        }
      ],
      "name": "Doctor_Unregister_status",
      "type": "event"
    },
    {
      "anonymous": false,
      "inputs": [
        {
          "indexed": false,
          "internalType": "address payable",
          "name": "pat_new",
          "type": "address"
        },
        {
          "indexed": false,
          "internalType": "string",
          "name": "_name",
          "type": "string"
        },
        {
          "indexed": false,
          "internalType": "uint256",
          "name": "age",
          "type": "uint256"
        },
        {
          "indexed": false,
          "internalType": "string",
          "name": "_email",
          "type": "string"
        },
        {
          "indexed": false,
          "internalType": "bool",
          "name": "status",
          "type": "bool"
        }
      ],
      "name": "Patient_Register_status",
      "type": "event"
    },
    {
      "anonymous": false,
      "inputs": [
        {
          "indexed": false,
          "internalType": "address payable",
          "name": "pat_new",
          "type": "address"
        },
        {
          "indexed": false,
          "internalType": "bool",
          "name": "status",
          "type": "bool"
        }
      ],
      "name": "Patient_Unregister_status",
      "type": "event"
    },
    {
      "anonymous": false,
      "inputs": [
        {
          "indexed": false,
          "internalType": "address payable",
          "name": "pharm_new",
          "type": "address"
        },
        {
          "indexed": false,
          "internalType": "string",
          "name": "_name",
          "type": "string"
        },
        {
          "indexed": false,
          "internalType": "string",
          "name": "_email",
          "type": "string"
        },
        {
          "indexed": false,
          "internalType": "string",
          "name": "_store_address",
          "type": "string"
        },
        {
          "indexed": false,
          "internalType": "bool",
          "name": "status",
          "type": "bool"
        }
      ],
      "name": "Pharmacy_Register_status",
      "type": "event"
    },
    {
      "anonymous": false,
      "inputs": [
        {
          "indexed": false,
          "internalType": "address payable",
          "name": "pharm_new",
          "type": "address"
        },
        {
          "indexed": false,
          "internalType": "bool",
          "name": "status",
          "type": "bool"
        }
      ],
      "name": "Pharmacy_Unregister_status",
      "type": "event"
    },
    {
      "anonymous": false,
      "inputs": [
        {
          "indexed": false,
          "internalType": "address payable",
          "name": "_Pat",
          "type": "address"
        },
        {
          "indexed": false,
          "internalType": "address",
          "name": "_Doc",
          "type": "address"
        },
        {
          "indexed": false,
          "internalType": "string",
          "name": "_PresDate",
          "type": "string"
        },
        {
          "indexed": false,
          "internalType": "string",
          "name": "medicines",
          "type": "string"
        },
        {
          "indexed": false,
          "internalType": "bool",
          "name": "status",
          "type": "bool"
        }
      ],
      "name": "Prescription_Register_status",
      "type": "event"
    },
    {
      "anonymous": false,
      "inputs": [
        {
          "indexed": false,
          "internalType": "address payable",
          "name": "_pat",
          "type": "address"
        },
        {
          "indexed": false,
          "internalType": "address",
          "name": "_doc",
          "type": "address"
        },
        {
          "indexed": false,
          "internalType": "uint256",
          "name": "pres_id",
          "type": "uint256"
        },
        {
          "indexed": false,
          "internalType": "bool",
          "name": "status",
          "type": "bool"
        }
      ],
      "name": "Validation_status",
      "type": "event"
    },
    {
      "anonymous": false,
      "inputs": [
        {
          "indexed": false,
          "internalType": "address",
          "name": "_pat",
          "type": "address"
        },
        {
          "indexed": false,
          "internalType": "uint256",
          "name": "amount",
          "type": "uint256"
        },
        {
          "indexed": false,
          "internalType": "bool",
          "name": "status",
          "type": "bool"
        }
      ],
      "name": "add_Funds",
      "type": "event"
    },
    {
      "anonymous": false,
      "inputs": [
        {
          "indexed": false,
          "internalType": "address",
          "name": "_sender",
          "type": "address"
        },
        {
          "indexed": false,
          "internalType": "address",
          "name": "_receiver",
          "type": "address"
        },
        {
          "indexed": false,
          "internalType": "uint256",
          "name": "amount",
          "type": "uint256"
        },
        {
          "indexed": false,
          "internalType": "bool",
          "name": "status",
          "type": "bool"
        }
      ],
      "name": "settlepayment_status",
      "type": "event"
    },
    {
      "inputs": [
        {
          "internalType": "address",
          "name": "",
          "type": "address"
        }
      ],
      "name": "deposits",
      "outputs": [
        {
          "internalType": "uint256",
          "name": "",
          "type": "uint256"
        }
      ],
      "stateMutability": "view",
      "type": "function",
      "constant": true
    },
    {
      "inputs": [
        {
          "internalType": "address",
          "name": "",
          "type": "address"
        }
      ],
      "name": "genuine_doctors",
      "outputs": [
        {
          "internalType": "bool",
          "name": "",
          "type": "bool"
        }
      ],
      "stateMutability": "view",
      "type": "function",
      "constant": true
    },
    {
      "inputs": [
        {
          "internalType": "address",
          "name": "",
          "type": "address"
        }
      ],
      "name": "patient_membership",
      "outputs": [
        {
          "internalType": "bool",
          "name": "",
          "type": "bool"
        }
      ],
      "stateMutability": "view",
      "type": "function",
      "constant": true
    },
    {
      "inputs": [
        {
          "internalType": "address",
          "name": "",
          "type": "address"
        }
      ],
      "name": "pharmacy_membership",
      "outputs": [
        {
          "internalType": "bool",
          "name": "",
          "type": "bool"
        }
      ],
      "stateMutability": "view",
      "type": "function",
      "constant": true
    },
    {
      "inputs": [
        {
          "internalType": "uint256",
          "name": "",
          "type": "uint256"
        }
      ],
      "name": "pres",
      "outputs": [
        {
          "internalType": "uint256",
          "name": "",
          "type": "uint256"
        }
      ],
      "stateMutability": "view",
      "type": "function",
      "constant": true
    },
    {
      "inputs": [
        {
          "internalType": "uint256",
          "name": "",
          "type": "uint256"
        }
      ],
      "name": "pres_pat_mapping",
      "outputs": [
        {
          "internalType": "address",
          "name": "",
          "type": "address"
        }
      ],
      "stateMutability": "view",
      "type": "function",
      "constant": true
    },
    {
      "inputs": [
        {
          "internalType": "uint256",
          "name": "",
          "type": "uint256"
        }
      ],
      "name": "prescription",
      "outputs": [
        {
          "internalType": "string",
          "name": "PresDate",
          "type": "string"
        },
        {
          "internalType": "address payable",
          "name": "Pat",
          "type": "address"
        },
        {
          "internalType": "address payable",
          "name": "Doc",
          "type": "address"
        },
        {
          "internalType": "string",
          "name": "medicines",
          "type": "string"
        }
      ],
      "stateMutability": "view",
      "type": "function",
      "constant": true
    },
    {
      "inputs": [
        {
          "internalType": "address",
          "name": "",
          "type": "address"
        }
      ],
      "name": "prescription_membership",
      "outputs": [
        {
          "internalType": "bool",
          "name": "",
          "type": "bool"
        }
      ],
      "stateMutability": "view",
      "type": "function",
      "constant": true
    },
    {
      "inputs": [
        {
          "internalType": "uint256",
          "name": "",
          "type": "uint256"
        }
      ],
      "name": "total_pres",
      "outputs": [
        {
          "internalType": "uint256",
          "name": "",
          "type": "uint256"
        }
      ],
      "stateMutability": "view",
      "type": "function",
      "constant": true
    },
    {
      "inputs": [
        {
          "internalType": "address payable",
          "name": "doc_new",
          "type": "address"
        },
        {
          "internalType": "string",
          "name": "_name",
          "type": "string"
        },
        {
          "internalType": "uint256",
          "name": "age",
          "type": "uint256"
        },
        {
          "internalType": "string",
          "name": "_email",
          "type": "string"
        },
        {
          "internalType": "string",
          "name": "_clinic_name",
          "type": "string"
        }
      ],
      "name": "Doctor_Register",
      "outputs": [
        {
          "internalType": "bool",
          "name": "",
          "type": "bool"
        }
      ],
      "stateMutability": "nonpayable",
      "type": "function"
    },
    {
      "inputs": [
        {
          "internalType": "address payable",
          "name": "doc_new",
          "type": "address"
        }
      ],
      "name": "Doctor_Unregister",
      "outputs": [
        {
          "internalType": "bool",
          "name": "",
          "type": "bool"
        }
      ],
      "stateMutability": "nonpayable",
      "type": "function"
    },
    {
      "inputs": [
        {
          "internalType": "address payable",
          "name": "pat_new",
          "type": "address"
        },
        {
          "internalType": "string",
          "name": "_name",
          "type": "string"
        },
        {
          "internalType": "uint256",
          "name": "age",
          "type": "uint256"
        },
        {
          "internalType": "string",
          "name": "_email",
          "type": "string"
        }
      ],
      "name": "Patient_Register",
      "outputs": [
        {
          "internalType": "bool",
          "name": "",
          "type": "bool"
        }
      ],
      "stateMutability": "nonpayable",
      "type": "function"
    },
    {
      "inputs": [
        {
          "internalType": "address payable",
          "name": "pat_new",
          "type": "address"
        }
      ],
      "name": "Patient_Unregister",
      "outputs": [
        {
          "internalType": "bool",
          "name": "",
          "type": "bool"
        }
      ],
      "stateMutability": "nonpayable",
      "type": "function"
    },
    {
      "inputs": [
        {
          "internalType": "address payable",
          "name": "pharm_new",
          "type": "address"
        },
        {
          "internalType": "string",
          "name": "_name",
          "type": "string"
        },
        {
          "internalType": "string",
          "name": "_email",
          "type": "string"
        },
        {
          "internalType": "string",
          "name": "_store_address",
          "type": "string"
        }
      ],
      "name": "Pharmacy_Register",
      "outputs": [
        {
          "internalType": "bool",
          "name": "",
          "type": "bool"
        }
      ],
      "stateMutability": "nonpayable",
      "type": "function"
    },
    {
      "inputs": [
        {
          "internalType": "address payable",
          "name": "pharm_new",
          "type": "address"
        }
      ],
      "name": "Pharmacy_Unregister",
      "outputs": [
        {
          "internalType": "bool",
          "name": "",
          "type": "bool"
        }
      ],
      "stateMutability": "nonpayable",
      "type": "function"
    },
    {
      "inputs": [
        {
          "internalType": "address payable",
          "name": "_Pat",
          "type": "address"
        },
        {
          "internalType": "address payable",
          "name": "_Doc",
          "type": "address"
        },
        {
          "internalType": "string",
          "name": "_PresDate",
          "type": "string"
        },
        {
          "internalType": "string",
          "name": "medicines",
          "type": "string"
        }
      ],
      "name": "Prescription_Register",
      "outputs": [
        {
          "internalType": "bool",
          "name": "",
          "type": "bool"
        }
      ],
      "stateMutability": "nonpayable",
      "type": "function"
    },
    {
      "inputs": [
        {
          "internalType": "address payable",
          "name": "_pat",
          "type": "address"
        },
        {
          "internalType": "address payable",
          "name": "_doc",
          "type": "address"
        }
      ],
      "name": "validate_prescription",
      "outputs": [
        {
          "internalType": "bool",
          "name": "",
          "type": "bool"
        },
        {
          "internalType": "uint256[]",
          "name": "",
          "type": "uint256[]"
        }
      ],
      "stateMutability": "nonpayable",
      "type": "function"
    },
    {
      "inputs": [
        {
          "internalType": "uint256",
          "name": "amount",
          "type": "uint256"
        }
      ],
      "name": "addFunds",
      "outputs": [
        {
          "internalType": "bool",
          "name": "",
          "type": "bool"
        },
        {
          "internalType": "uint256",
          "name": "",
          "type": "uint256"
        }
      ],
      "stateMutability": "payable",
      "type": "function",
      "payable": true
    },
    {
      "inputs": [
        {
          "internalType": "address payable",
          "name": "receiver",
          "type": "address"
        },
        {
          "internalType": "uint256",
          "name": "amount",
          "type": "uint256"
        }
      ],
      "name": "settlepayment",
      "outputs": [
        {
          "internalType": "bool",
          "name": "",
          "type": "bool"
        },
        {
          "internalType": "uint256",
          "name": "",
          "type": "uint256"
        }
      ],
      "stateMutability": "payable",
      "type": "function",
      "payable": true
    }
  ],
  "bytecode": "0x6080604052600060035534801561001557600080fd5b50336000806101000a81548173ffffffffffffffffffffffffffffffffffffffff021916908373ffffffffffffffffffffffffffffffffffffffff16021790555033600260006101000a81548173ffffffffffffffffffffffffffffffffffffffff021916908373ffffffffffffffffffffffffffffffffffffffff16021790555033600160006101000a81548173ffffffffffffffffffffffffffffffffffffffff021916908373ffffffffffffffffffffffffffffffffffffffff160217905550612b5e806100e76000396000f3fe6080604052600436106101145760003560e01c80636670e579116100a0578063be99970511610064578063be99970514610466578063df66cc1e14610497578063e87d0c22146104d5578063f688dc4f14610512578063fc7e286d1461054f57610114565b80636670e579146103355780637df9679b1461037257806393854523146103af578063a5aadc9e146103ec578063b7b1c40e1461042957610114565b80632f0ec0ed116100e75780632f0ec0ed146102105780633a4725301461024d5780634c91a4b01461027e57806359f02e3b146102bb578063664ff5bc146102f857610114565b80630c6d9a6814610119578063112755661461015657806318c13a5c14610193578063287eda05146101d0575b600080fd5b34801561012557600080fd5b50610140600480360381019061013b9190611a16565b61058c565b60405161014d9190611a5e565b60405180910390f35b34801561016257600080fd5b5061017d60048036038101906101789190611a16565b6105ac565b60405161018a9190611a5e565b60405180910390f35b34801561019f57600080fd5b506101ba60048036038101906101b59190611aaf565b6105cc565b6040516101c79190611aeb565b60405180910390f35b3480156101dc57600080fd5b506101f760048036038101906101f29190611aaf565b6105ff565b6040516102079493929190611bb7565b60405180910390f35b34801561021c57600080fd5b5061023760048036038101906102329190611a16565b61077f565b6040516102449190611a5e565b60405180910390f35b61026760048036038101906102629190611c36565b61079f565b604051610275929190611c85565b60405180910390f35b34801561028a57600080fd5b506102a560048036038101906102a09190611aaf565b610a60565b6040516102b29190611cae565b60405180910390f35b3480156102c757600080fd5b506102e260048036038101906102dd9190611a16565b610a84565b6040516102ef9190611a5e565b60405180910390f35b34801561030457600080fd5b5061031f600480360381019061031a9190611dfe565b610aa4565b60405161032c9190611a5e565b60405180910390f35b34801561034157600080fd5b5061035c60048036038101906103579190611eb9565b610ba4565b6040516103699190611a5e565b60405180910390f35b34801561037e57600080fd5b5061039960048036038101906103949190611f58565b610e03565b6040516103a69190611a5e565b60405180910390f35b3480156103bb57600080fd5b506103d660048036038101906103d19190611f85565b610efa565b6040516103e39190611a5e565b60405180910390f35b3480156103f857600080fd5b50610413600480360381019061040e9190611f58565b610ffa565b6040516104209190611a5e565b60405180910390f35b34801561043557600080fd5b50610450600480360381019061044b9190611f58565b611185565b60405161045d9190611a5e565b60405180910390f35b610480600480360381019061047b9190611aaf565b61127c565b60405161048e929190611c85565b60405180910390f35b3480156104a357600080fd5b506104be60048036038101906104b99190612024565b611377565b6040516104cc929190612122565b60405180910390f35b3480156104e157600080fd5b506104fc60048036038101906104f79190612152565b611767565b6040516105099190611a5e565b60405180910390f35b34801561051e57600080fd5b5061053960048036038101906105349190611aaf565b6118fe565b6040516105469190611cae565b60405180910390f35b34801561055b57600080fd5b5061057660048036038101906105719190611a16565b611922565b6040516105839190611cae565b60405180910390f35b60076020528060005260406000206000915054906101000a900460ff1681565b60066020528060005260406000206000915054906101000a900460ff1681565b60086020528060005260406000206000915054906101000a900473ffffffffffffffffffffffffffffffffffffffff1681565b600460205280600052604060002060009150905080600001805461062290612250565b80601f016020809104026020016040519081016040528092919081815260200182805461064e90612250565b801561069b5780601f106106705761010080835404028352916020019161069b565b820191906000526020600020905b81548152906001019060200180831161067e57829003601f168201915b5050505050908060010160009054906101000a900473ffffffffffffffffffffffffffffffffffffffff16908060020160009054906101000a900473ffffffffffffffffffffffffffffffffffffffff16908060030180546106fc90612250565b80601f016020809104026020016040519081016040528092919081815260200182805461072890612250565b80156107755780601f1061074a57610100808354040283529160200191610775565b820191906000526020600020905b81548152906001019060200180831161075857829003601f168201915b5050505050905084565b60056020528060005260406000206000915054906101000a900460ff1681565b600080600260009054906101000a900473ffffffffffffffffffffffffffffffffffffffff1673ffffffffffffffffffffffffffffffffffffffff163373ffffffffffffffffffffffffffffffffffffffff16146107fc57600080fd5b82600c60003373ffffffffffffffffffffffffffffffffffffffff1673ffffffffffffffffffffffffffffffffffffffff16815260200190815260200160002054101561087e576040517f08c379a0000000000000000000000000000000000000000000000000000000008152600401610875906122cd565b60405180910390fd5b60011515600660008673ffffffffffffffffffffffffffffffffffffffff1673ffffffffffffffffffffffffffffffffffffffff16815260200190815260200160002060009054906101000a900460ff16151503610a13578373ffffffffffffffffffffffffffffffffffffffff166108fc849081150290604051600060405180830381858888f1935050505015801561091c573d6000803e3d6000fd5b5082600c60003373ffffffffffffffffffffffffffffffffffffffff1673ffffffffffffffffffffffffffffffffffffffff168152602001908152602001600020600082825461096c919061231c565b9250508190555082600c60008673ffffffffffffffffffffffffffffffffffffffff1673ffffffffffffffffffffffffffffffffffffffff16815260200190815260200160002060008282546109c29190612350565b925050819055507f778ce290d8cc92a2b9a8545befff3c46284da370f39fae301cd1fd0640d5688233858560016040516109ff94939291906123e3565b60405180910390a160018391509150610a59565b7f778ce290d8cc92a2b9a8545befff3c46284da370f39fae301cd1fd0640d568823385856000604051610a4994939291906123e3565b60405180910390a1600083915091505b9250929050565b600a8181548110610a7057600080fd5b906000526020600020016000915090505481565b600b6020528060005260406000206000915054906101000a900460ff1681565b6000600160009054906101000a900473ffffffffffffffffffffffffffffffffffffffff1673ffffffffffffffffffffffffffffffffffffffff163373ffffffffffffffffffffffffffffffffffffffff1614610b0057600080fd5b6001600660008773ffffffffffffffffffffffffffffffffffffffff1673ffffffffffffffffffffffffffffffffffffffff16815260200190815260200160002060006101000a81548160ff0219169083151502179055507f3767c85506290f2df02c29b3885e71bf40c61f54ef409634aa59e5fbf35b5335858585856001604051610b90959493929190612428565b60405180910390a160019050949350505050565b60008060009054906101000a900473ffffffffffffffffffffffffffffffffffffffff1673ffffffffffffffffffffffffffffffffffffffff163373ffffffffffffffffffffffffffffffffffffffff1614610bff57600080fd5b60405180608001604052808481526020018673ffffffffffffffffffffffffffffffffffffffff1681526020018573ffffffffffffffffffffffffffffffffffffffff168152602001838152506004600060035481526020019081526020016000206000820151816000019081610c769190612632565b5060208201518160010160006101000a81548173ffffffffffffffffffffffffffffffffffffffff021916908373ffffffffffffffffffffffffffffffffffffffff16021790555060408201518160020160006101000a81548173ffffffffffffffffffffffffffffffffffffffff021916908373ffffffffffffffffffffffffffffffffffffffff1602179055506060820151816003019081610d1a9190612632565b509050508460086000600354815260200190815260200160002060006101000a81548173ffffffffffffffffffffffffffffffffffffffff021916908373ffffffffffffffffffffffffffffffffffffffff16021790555060096003549080600181540180825580915050600190039060005260206000200160009091909190915055600160036000828254610db09190612350565b925050819055507fffb21fe041dc56de6f10de484845d30fc7ae7bdec821b43b74a037e926aa29b8858585856001604051610def959493929190612704565b60405180910390a160019050949350505050565b6000600260009054906101000a900473ffffffffffffffffffffffffffffffffffffffff1673ffffffffffffffffffffffffffffffffffffffff163373ffffffffffffffffffffffffffffffffffffffff1614610e5f57600080fd5b6000600560008473ffffffffffffffffffffffffffffffffffffffff1673ffffffffffffffffffffffffffffffffffffffff16815260200190815260200160002060006101000a81548160ff0219169083151502179055507f710db87fb19357f7c23152008a82d108da73e8245ce518cbc67f26e62ba5f1a1826001604051610ee9929190612765565b60405180910390a160019050919050565b6000600260009054906101000a900473ffffffffffffffffffffffffffffffffffffffff1673ffffffffffffffffffffffffffffffffffffffff163373ffffffffffffffffffffffffffffffffffffffff1614610f5657600080fd5b6001600560008773ffffffffffffffffffffffffffffffffffffffff1673ffffffffffffffffffffffffffffffffffffffff16815260200190815260200160002060006101000a81548160ff0219169083151502179055507f68274295f0cc152fad8a140774d951d9746c7e42e3d62ecb8d255059f0f14820858585856001604051610fe695949392919061278e565b60405180910390a160019050949350505050565b60008060009054906101000a900473ffffffffffffffffffffffffffffffffffffffff1673ffffffffffffffffffffffffffffffffffffffff163373ffffffffffffffffffffffffffffffffffffffff161461105557600080fd5b8160011515600760008373ffffffffffffffffffffffffffffffffffffffff1673ffffffffffffffffffffffffffffffffffffffff16815260200190815260200160002060009054906101000a900460ff161515146110e9576040517f08c379a00000000000000000000000000000000000000000000000000000000081526004016110e09061283b565b60405180910390fd5b6000600760008573ffffffffffffffffffffffffffffffffffffffff1673ffffffffffffffffffffffffffffffffffffffff16815260200190815260200160002060006101000a81548160ff0219169083151502179055507fb779bdee3cdad335c6d6afbd220c92352eb899f4581cecf9fb67b6b094adb003836001604051611173929190612765565b60405180910390a16001915050919050565b6000600160009054906101000a900473ffffffffffffffffffffffffffffffffffffffff1673ffffffffffffffffffffffffffffffffffffffff163373ffffffffffffffffffffffffffffffffffffffff16146111e157600080fd5b6000600660008473ffffffffffffffffffffffffffffffffffffffff1673ffffffffffffffffffffffffffffffffffffffff16815260200190815260200160002060006101000a81548160ff0219169083151502179055507fa0ec429d45761995106fcac32b2a7a3479e483e953047f70c1fceff709d82b7182600160405161126b929190612765565b60405180910390a160019050919050565b600080600260009054906101000a900473ffffffffffffffffffffffffffffffffffffffff1673ffffffffffffffffffffffffffffffffffffffff163373ffffffffffffffffffffffffffffffffffffffff16146112d957600080fd5b7fd8d674bc1a9361ec9b7116f45a1895db92249372dd5c0723f5b7d2ccff71d9ff3384600160405161130d9392919061285b565b60405180910390a182600c60003373ffffffffffffffffffffffffffffffffffffffff1673ffffffffffffffffffffffffffffffffffffffff16815260200190815260200160002060008282546113649190612350565b9250508190555060018391509150915091565b60006060600160009054906101000a900473ffffffffffffffffffffffffffffffffffffffff1673ffffffffffffffffffffffffffffffffffffffff163373ffffffffffffffffffffffffffffffffffffffff16146113d557600080fd5b600060011515600560008773ffffffffffffffffffffffffffffffffffffffff1673ffffffffffffffffffffffffffffffffffffffff16815260200190815260200160002060009054906101000a900460ff161515148015611487575060011515600760008673ffffffffffffffffffffffffffffffffffffffff1673ffffffffffffffffffffffffffffffffffffffff16815260200190815260200160002060009054906101000a900460ff161515145b156116c65760005b6009805490508110156115a157856040516020016114ad91906128da565b604051602081830303815290604052805190602001206008600083815260200190815260200160002060009054906101000a900473ffffffffffffffffffffffffffffffffffffffff16604051602001611507919061291e565b604051602081830303815290604052805190602001200361158e57600a819080600181540180825580915050600190039060005260206000200160009091909190915055600191507ffb3c9ae3b237b6f9d0a6efc244e7be94387990dc1898f182bbbfdaf401ff946586868360016040516115859493929190612939565b60405180910390a15b80806115999061297e565b91505061148f565b50600115158115150361160e576001600a808054806020026020016040519081016040528092919081815260200182805480156115fd57602002820191906000526020600020905b8154815260200190600101908083116115e9575b505050505090509250925050611760565b606080600a908051906020019061162692919061193a565b507ffb3c9ae3b237b6f9d0a6efc244e7be94387990dc1898f182bbbfdaf401ff9465868660008060405161165d9493929190612a01565b60405180910390a16000600a808054806020026020016040519081016040528092919081815260200182805480156116b457602002820191906000526020600020905b8154815260200190600101908083116116a0575b50505050509050935093505050611760565b7ffb3c9ae3b237b6f9d0a6efc244e7be94387990dc1898f182bbbfdaf401ff946585856000806040516116fc9493929190612a01565b60405180910390a16000600a8080548060200260200160405190810160405280929190818152602001828054801561175357602002820191906000526020600020905b81548152602001906001019080831161173f575b5050505050905092509250505b9250929050565b60008060009054906101000a900473ffffffffffffffffffffffffffffffffffffffff1673ffffffffffffffffffffffffffffffffffffffff163373ffffffffffffffffffffffffffffffffffffffff16146117c257600080fd5b8560001515600760008373ffffffffffffffffffffffffffffffffffffffff1673ffffffffffffffffffffffffffffffffffffffff16815260200190815260200160002060009054906101000a900460ff16151514611856576040517f08c379a000000000000000000000000000000000000000000000000000000000815260040161184d90612a92565b60405180910390fd5b6001600760008973ffffffffffffffffffffffffffffffffffffffff1673ffffffffffffffffffffffffffffffffffffffff16815260200190815260200160002060006101000a81548160ff0219169083151502179055507f7f480a9870921c24ef37c6f8b1a9398b86ac7cd79b47e5f9d315c6df56fae87e878787878760016040516118e896959493929190612ab2565b60405180910390a1600191505095945050505050565b6009818154811061190e57600080fd5b906000526020600020016000915090505481565b600c6020528060005260406000206000915090505481565b828054828255906000526020600020908101928215611976579160200282015b8281111561197557825182559160200191906001019061195a565b5b5090506119839190611987565b5090565b5b808211156119a0576000816000905550600101611988565b5090565b6000604051905090565b600080fd5b600080fd5b600073ffffffffffffffffffffffffffffffffffffffff82169050919050565b60006119e3826119b8565b9050919050565b6119f3816119d8565b81146119fe57600080fd5b50565b600081359050611a10816119ea565b92915050565b600060208284031215611a2c57611a2b6119ae565b5b6000611a3a84828501611a01565b91505092915050565b60008115159050919050565b611a5881611a43565b82525050565b6000602082019050611a736000830184611a4f565b92915050565b6000819050919050565b611a8c81611a79565b8114611a9757600080fd5b50565b600081359050611aa981611a83565b92915050565b600060208284031215611ac557611ac46119ae565b5b6000611ad384828501611a9a565b91505092915050565b611ae5816119d8565b82525050565b6000602082019050611b006000830184611adc565b92915050565b600081519050919050565b600082825260208201905092915050565b60005b83811015611b40578082015181840152602081019050611b25565b60008484015250505050565b6000601f19601f8301169050919050565b6000611b6882611b06565b611b728185611b11565b9350611b82818560208601611b22565b611b8b81611b4c565b840191505092915050565b6000611ba1826119b8565b9050919050565b611bb181611b96565b82525050565b60006080820190508181036000830152611bd18187611b5d565b9050611be06020830186611ba8565b611bed6040830185611ba8565b8181036060830152611bff8184611b5d565b905095945050505050565b611c1381611b96565b8114611c1e57600080fd5b50565b600081359050611c3081611c0a565b92915050565b60008060408385031215611c4d57611c4c6119ae565b5b6000611c5b85828601611c21565b9250506020611c6c85828601611a9a565b9150509250929050565b611c7f81611a79565b82525050565b6000604082019050611c9a6000830185611a4f565b611ca76020830184611c76565b9392505050565b6000602082019050611cc36000830184611c76565b92915050565b600080fd5b600080fd5b7f4e487b7100000000000000000000000000000000000000000000000000000000600052604160045260246000fd5b611d0b82611b4c565b810181811067ffffffffffffffff82111715611d2a57611d29611cd3565b5b80604052505050565b6000611d3d6119a4565b9050611d498282611d02565b919050565b600067ffffffffffffffff821115611d6957611d68611cd3565b5b611d7282611b4c565b9050602081019050919050565b82818337600083830152505050565b6000611da1611d9c84611d4e565b611d33565b905082815260208101848484011115611dbd57611dbc611cce565b5b611dc8848285611d7f565b509392505050565b600082601f830112611de557611de4611cc9565b5b8135611df5848260208601611d8e565b91505092915050565b60008060008060808587031215611e1857611e176119ae565b5b6000611e2687828801611c21565b945050602085013567ffffffffffffffff811115611e4757611e466119b3565b5b611e5387828801611dd0565b935050604085013567ffffffffffffffff811115611e7457611e736119b3565b5b611e8087828801611dd0565b925050606085013567ffffffffffffffff811115611ea157611ea06119b3565b5b611ead87828801611dd0565b91505092959194509250565b60008060008060808587031215611ed357611ed26119ae565b5b6000611ee187828801611c21565b9450506020611ef287828801611c21565b935050604085013567ffffffffffffffff811115611f1357611f126119b3565b5b611f1f87828801611dd0565b925050606085013567ffffffffffffffff811115611f4057611f3f6119b3565b5b611f4c87828801611dd0565b91505092959194509250565b600060208284031215611f6e57611f6d6119ae565b5b6000611f7c84828501611c21565b91505092915050565b60008060008060808587031215611f9f57611f9e6119ae565b5b6000611fad87828801611c21565b945050602085013567ffffffffffffffff811115611fce57611fcd6119b3565b5b611fda87828801611dd0565b9350506040611feb87828801611a9a565b925050606085013567ffffffffffffffff81111561200c5761200b6119b3565b5b61201887828801611dd0565b91505092959194509250565b6000806040838503121561203b5761203a6119ae565b5b600061204985828601611c21565b925050602061205a85828601611c21565b9150509250929050565b600081519050919050565b600082825260208201905092915050565b6000819050602082019050919050565b61209981611a79565b82525050565b60006120ab8383612090565b60208301905092915050565b6000602082019050919050565b60006120cf82612064565b6120d9818561206f565b93506120e483612080565b8060005b838110156121155781516120fc888261209f565b9750612107836120b7565b9250506001810190506120e8565b5085935050505092915050565b60006040820190506121376000830185611a4f565b818103602083015261214981846120c4565b90509392505050565b600080600080600060a0868803121561216e5761216d6119ae565b5b600061217c88828901611c21565b955050602086013567ffffffffffffffff81111561219d5761219c6119b3565b5b6121a988828901611dd0565b94505060406121ba88828901611a9a565b935050606086013567ffffffffffffffff8111156121db576121da6119b3565b5b6121e788828901611dd0565b925050608086013567ffffffffffffffff811115612208576122076119b3565b5b61221488828901611dd0565b9150509295509295909350565b7f4e487b7100000000000000000000000000000000000000000000000000000000600052602260045260246000fd5b6000600282049050600182168061226857607f821691505b60208210810361227b5761227a612221565b5b50919050565b7f496e73756666696369656e742066756e64730000000000000000000000000000600082015250565b60006122b7601283611b11565b91506122c282612281565b602082019050919050565b600060208201905081810360008301526122e6816122aa565b9050919050565b7f4e487b7100000000000000000000000000000000000000000000000000000000600052601160045260246000fd5b600061232782611a79565b915061233283611a79565b925082820390508181111561234a576123496122ed565b5b92915050565b600061235b82611a79565b915061236683611a79565b925082820190508082111561237e5761237d6122ed565b5b92915050565b6000819050919050565b60006123a96123a461239f846119b8565b612384565b6119b8565b9050919050565b60006123bb8261238e565b9050919050565b60006123cd826123b0565b9050919050565b6123dd816123c2565b82525050565b60006080820190506123f86000830187611adc565b61240560208301866123d4565b6124126040830185611c76565b61241f6060830184611a4f565b95945050505050565b600060a08201905061243d6000830188611ba8565b818103602083015261244f8187611b5d565b905081810360408301526124638186611b5d565b905081810360608301526124778185611b5d565b90506124866080830184611a4f565b9695505050505050565b60008190508160005260206000209050919050565b60006020601f8301049050919050565b600082821b905092915050565b6000600883026124f27fffffffffffffffffffffffffffffffffffffffffffffffffffffffffffffffff826124b5565b6124fc86836124b5565b95508019841693508086168417925050509392505050565b600061252f61252a61252584611a79565b612384565b611a79565b9050919050565b6000819050919050565b61254983612514565b61255d61255582612536565b8484546124c2565b825550505050565b600090565b612572612565565b61257d818484612540565b505050565b5b818110156125a15761259660008261256a565b600181019050612583565b5050565b601f8211156125e6576125b781612490565b6125c0846124a5565b810160208510156125cf578190505b6125e36125db856124a5565b830182612582565b50505b505050565b600082821c905092915050565b6000612609600019846008026125eb565b1980831691505092915050565b600061262283836125f8565b9150826002028217905092915050565b61263b82611b06565b67ffffffffffffffff81111561265457612653611cd3565b5b61265e8254612250565b6126698282856125a5565b600060209050601f83116001811461269c576000841561268a578287015190505b6126948582612616565b8655506126fc565b601f1984166126aa86612490565b60005b828110156126d2578489015182556001820191506020850194506020810190506126ad565b868310156126ef57848901516126eb601f8916826125f8565b8355505b6001600288020188555050505b505050505050565b600060a0820190506127196000830188611ba8565b61272660208301876123d4565b81810360408301526127388186611b5d565b9050818103606083015261274c8185611b5d565b905061275b6080830184611a4f565b9695505050505050565b600060408201905061277a6000830185611ba8565b6127876020830184611a4f565b9392505050565b600060a0820190506127a36000830188611ba8565b81810360208301526127b58187611b5d565b90506127c46040830186611c76565b81810360608301526127d68185611b5d565b90506127e56080830184611a4f565b9695505050505050565b7f446f63746f722069732074686572650000000000000000000000000000000000600082015250565b6000612825600f83611b11565b9150612830826127ef565b602082019050919050565b6000602082019050818103600083015261285481612818565b9050919050565b60006060820190506128706000830186611adc565b61287d6020830185611c76565b61288a6040830184611a4f565b949350505050565b60008160601b9050919050565b60006128aa82612892565b9050919050565b60006128bc8261289f565b9050919050565b6128d46128cf82611b96565b6128b1565b82525050565b60006128e682846128c3565b60148201915081905092915050565b60006129008261289f565b9050919050565b612918612913826119d8565b6128f5565b82525050565b600061292a8284612907565b60148201915081905092915050565b600060808201905061294e6000830187611ba8565b61295b60208301866123d4565b6129686040830185611c76565b6129756060830184611a4f565b95945050505050565b600061298982611a79565b91507fffffffffffffffffffffffffffffffffffffffffffffffffffffffffffffffff82036129bb576129ba6122ed565b5b600182019050919050565b6000819050919050565b60006129eb6129e66129e1846129c6565b612384565b611a79565b9050919050565b6129fb816129d0565b82525050565b6000608082019050612a166000830187611ba8565b612a2360208301866123d4565b612a3060408301856129f2565b612a3d6060830184611a4f565b95945050505050565b7f446f63746f72206973206e6f7420746865726500000000000000000000000000600082015250565b6000612a7c601383611b11565b9150612a8782612a46565b602082019050919050565b60006020820190508181036000830152612aab81612a6f565b9050919050565b600060c082019050612ac76000830189611ba8565b8181036020830152612ad98188611b5d565b9050612ae86040830187611c76565b8181036060830152612afa8186611b5d565b90508181036080830152612b0e8185611b5d565b9050612b1d60a0830184611a4f565b97965050505050505056fea26469706673582212202b6ff02f31dbaf3b5657c0e0c9eaa13d200ced6a521baa195ff3071353e0acba64736f6c63430008110033",
  "immutableReferences": {},
  "source": "// SPDX-License-Identifier: GPL-3.0\n//pragma experimental ABIEncoderV2;\npragma solidity  >=0.5.0 <0.9.0;\n\ncontract RxChain{\n    \n    address payable Doc;\n    address payable Pharm;\n    address payable Pat;\n\n    //uint256 PresID;\n    uint256 PresID=0;\n\n    //to check if the prescription is valid\n    \n  \n    struct PresDetails{\n           string PresDate;\n           address payable Pat;\n           address payable Doc;\n           string medicines;}\n\n    struct Patient{\n   \n    uint256 age;\n    string name;\n    string email;\n    address payable Pat;}\n\n    struct Doctor{\n\n    uint256 age;\n    string name;\n    string email;\n    //clinic or hospital name\n    string clinic_name;\n    address payable Doc;}\n\n    struct Pharmacy{\n\n    string name;\n    string email;\n    //store address\n    string store_address;\n    address payable Pharm;\n    }\n    mapping(uint256=>PresDetails) public prescription;\n    mapping (address=>bool) public patient_membership;\n    mapping (address=>bool) public pharmacy_membership;\n    //doctors address mapped to the whether they exist or not\n    mapping(address => bool) public genuine_doctors;\n    \n    mapping (uint256 => address) public pres_pat_mapping;\n    \n    uint256[] public total_pres;\n    uint256[] public pres;\n\n    mapping(address=>bool) public prescription_membership;\n    //deposits mapping\n    mapping (address=>uint256) public deposits;\n     \n  \n    modifier onlyDoctor{\n             require(payable(msg.sender) == Doc);\n             _;\n    }\n    modifier onlyPatient{\n             require(payable(msg.sender) == Pat);\n             _;\n    }\n    modifier onlypharmacy{\n           require(payable(msg.sender) == Pharm);\n             _;\n    }\n    modifier DoctorListed(address payable _doc) {\n    require(genuine_doctors[_doc] == false,\"Doctor is not there\");\n    _;\n    }\n     modifier DoctorAlreadyListed(address payable _doc) {\n    require(genuine_doctors[_doc] == true,\"Doctor is there\");\n    _;\n    }\n\n   event Doctor_Register_status(\n   address payable doc_new,string _name, uint256 age,string _email,string _clinic_name, bool status\n   );\n    event Patient_Register_status(\n    address payable pat_new,string _name, uint256 age,string _email,bool status\n   );\n   event Pharmacy_Register_status(\n   address payable pharm_new,string _name, string _email,string _store_address, bool status\n   );\n   event Doctor_Unregister_status(\n   address payable doc_new,bool status\n   );\n    event Patient_Unregister_status(\n    address payable pat_new,bool status\n   );\n   event Pharmacy_Unregister_status(\n   address payable pharm_new,bool status\n   );\n   event Prescription_Register_status(\n    address payable _Pat, address _Doc, string _PresDate,string medicines,bool status\n   );\n   event Validation_status(\n    address payable _pat, address _doc, uint pres_id,bool status\n   );\n   event add_Funds(\n    address _pat,uint256 amount,bool status\n   );\n   event settlepayment_status(\n    address _sender,address _receiver,uint256 amount,bool status\n   );\n\n  constructor() {\n    Doc = payable(msg.sender);\n    Pat = payable(msg.sender);\n    Pharm = payable(msg.sender);\n\n  }\n\n   //Registering the new Doctor\n    function Doctor_Register(address payable doc_new,string memory _name, uint256 age,string memory _email,string memory _clinic_name) public   \n    onlyDoctor DoctorListed(doc_new) returns (bool)\n  {\n    genuine_doctors[doc_new]=true;\n    emit Doctor_Register_status(doc_new,_name,age,_email,_clinic_name,true);\n    return true;\n  }\n    //De-Registering the Doctor\n   function Doctor_Unregister(address payable doc_new) onlyDoctor public   \n    DoctorAlreadyListed(doc_new) returns(bool) \n  {\n    \n    //delete doctor_membership[doc_new];\n    genuine_doctors[doc_new]=false;\n    emit Doctor_Unregister_status(doc_new,true);\n    return true;\n  }\n  //Registering the new Patient\n   function Patient_Register(address payable pat_new,string memory _name, uint256 age,string memory _email) onlyPatient public   \n     returns(bool) \n  {\n     \n    //patients_list.push(Patient({name:_name, age:age,email:_email,Pat:pat_new}));\n    patient_membership[pat_new]=true;\n    emit Patient_Register_status(pat_new,_name,age,_email,true);\n    return true;\n  }\n\n  //Unregistering the new Patient\n   function Patient_Unregister(address payable pat_new) onlyPatient public   \n     returns(bool) \n  {\n    //deleting from mapping\n    patient_membership[pat_new]=false;\n    emit Patient_Unregister_status(pat_new,true);\n   \n    return true;\n  }\n  //Registering a pharmacist\n  function Pharmacy_Register(address payable pharm_new,string memory _name, string memory _email,string memory _store_address) public   \n  onlypharmacy returns(bool) \n  {\n      \n    \n    pharmacy_membership[pharm_new]=true;\n    emit Pharmacy_Register_status(pharm_new,_name,_email, _store_address,true);\n    return true;\n  }\n //Unregistering the pharmacist\n\n    function Pharmacy_Unregister(address payable pharm_new) public   \n    onlypharmacy returns(bool) \n  {\n    \n    //deleting from mapping\n    pharmacy_membership[pharm_new]=false;\n    emit Pharmacy_Unregister_status(pharm_new,true);\n    return true;\n  }\n  //adding prescription\n  function Prescription_Register(address payable _Pat, address payable _Doc, string memory _PresDate,string memory medicines) public   \n    onlyDoctor returns(bool) \n  {\n     \n\n    //prescription_list.push(PresDetails({PresDate:_PresDate,Pat:_Pat,Doc:_Doc,medicines:medicines}));\n    prescription[PresID]=PresDetails({PresDate:_PresDate,Pat:_Pat,Doc:_Doc,medicines:medicines});\n    pres_pat_mapping[PresID]=_Pat;\n    total_pres.push(PresID);\n    //prescription_membership[_Doc]=true;\n    PresID+=1;\n    emit Prescription_Register_status(_Pat,_Doc,_PresDate,medicines,true);\n    return true;\n  }\n\n    //validating the prescription\n    function validate_prescription(address payable _pat, address payable _doc) public onlypharmacy returns (bool,uint256[] memory) {\n        bool isvalid=false;\n        if(patient_membership[_pat]==true && genuine_doctors[_doc]==true)\n        {\n            for(uint256 i=0 ; i<total_pres.length;i++)\n            {\n                if (keccak256(abi.encodePacked(pres_pat_mapping[i])) == keccak256(abi.encodePacked(_pat)))\n                {\n                    pres.push(i);\n                    isvalid=true;\n                    emit Validation_status(_pat,_doc,i,true);\n                }\n            }\n           \n            \n            if(isvalid==true)\n            {\n               \n                return (true,pres);\n            }\n            else\n            {   uint256[] memory temp;\n                pres=temp;\n                emit Validation_status(_pat,_doc,0,false);\n                return (false,pres);\n            }\n        }\n        else\n        {\n            emit Validation_status(_pat,_doc,0,false);\n            return (false,pres);\n        }\n    \n    }\n\n    function addFunds(uint256 amount) public onlyPatient payable returns (bool,uint256)\n    {\n      emit add_Funds(msg.sender,amount,true);\n      deposits[msg.sender] += amount;\n      return (true,amount);\n    }\n\n    function settlepayment(address payable receiver,uint256 amount) public onlyPatient payable returns (bool,uint256)\n    {\n        \n           require(deposits[msg.sender] >= amount, \"Insufficient funds\");\n            //uint256 amount = msg.value;\n           if(pharmacy_membership[receiver]==true)\n           {\n                receiver.transfer(amount);\n                deposits[msg.sender] -= amount;\n                deposits[receiver] += amount;\n                emit settlepayment_status(msg.sender,receiver,amount,true);\n                return (true,amount);\n            }\n               \n      emit settlepayment_status(msg.sender,receiver,amount,false);\n      return (false,amount);\n         \n      }\n\n}",
  "sourcePath": "/Users/lakshyarawal/Desktop/526/Term Project/RxChain/contracts/RxChain.sol",
  "compiler": {
    "name": "solc",
    "version": "0.8.17+commit.8df45f5f.Emscripten.clang"
  },
  "schemaVersion": "3.4.10",
  "updatedAt": "2022-11-13T05:34:52.285Z",
  "networkType": "ethereum",
  "devdoc": {
    "kind": "dev",
    "methods": {},
    "version": 1
  },
  "userdoc": {
    "kind": "user",
    "methods": {},
    "version": 1
  }
}